{
  "contractName": "ERC721Connector",
  "abi": [
    {
      "inputs": [
        {
          "internalType": "string",
          "name": "_name",
          "type": "string"
        },
        {
          "internalType": "string",
          "name": "_symbol",
          "type": "string"
        }
      ],
      "stateMutability": "nonpayable",
      "type": "constructor"
    },
    {
      "anonymous": false,
      "inputs": [
        {
          "indexed": true,
          "internalType": "address",
          "name": "_from",
          "type": "address"
        },
        {
          "indexed": true,
          "internalType": "address",
          "name": "_to",
          "type": "address"
        },
        {
          "indexed": true,
          "internalType": "uint256",
          "name": "_tokenId",
          "type": "uint256"
        }
      ],
      "name": "Transfer",
      "type": "event"
    },
    {
      "inputs": [
        {
          "internalType": "address",
          "name": "_owner",
          "type": "address"
        }
      ],
      "name": "balanceOf",
      "outputs": [
        {
          "internalType": "uint256",
          "name": "",
          "type": "uint256"
        }
      ],
      "stateMutability": "view",
      "type": "function"
    },
    {
      "inputs": [],
      "name": "getName",
      "outputs": [
        {
          "internalType": "string",
          "name": "",
          "type": "string"
        }
      ],
      "stateMutability": "view",
      "type": "function"
    },
    {
      "inputs": [],
      "name": "getSymbol",
      "outputs": [
        {
          "internalType": "string",
          "name": "",
          "type": "string"
        }
      ],
      "stateMutability": "view",
      "type": "function"
    },
    {
      "inputs": [
        {
          "internalType": "uint256",
          "name": "_tokenId",
          "type": "uint256"
        }
      ],
      "name": "ownerOf",
      "outputs": [
        {
          "internalType": "address",
          "name": "",
          "type": "address"
        }
      ],
      "stateMutability": "view",
      "type": "function"
    },
    {
      "inputs": [
        {
          "internalType": "uint256",
          "name": "_index",
          "type": "uint256"
        }
      ],
      "name": "tokenByIndex",
      "outputs": [
        {
          "internalType": "uint256",
          "name": "",
          "type": "uint256"
        }
      ],
      "stateMutability": "view",
      "type": "function"
    },
    {
      "inputs": [
        {
          "internalType": "address",
          "name": "_owner",
          "type": "address"
        },
        {
          "internalType": "uint256",
          "name": "_index",
          "type": "uint256"
        }
      ],
      "name": "tokenOfOwnerByIndex",
      "outputs": [
        {
          "internalType": "uint256",
          "name": "",
          "type": "uint256"
        }
      ],
      "stateMutability": "view",
      "type": "function"
    },
    {
      "inputs": [],
      "name": "totalSupply",
      "outputs": [
        {
          "internalType": "uint256",
          "name": "",
          "type": "uint256"
        }
      ],
      "stateMutability": "view",
      "type": "function"
    },
    {
      "inputs": [
        {
          "internalType": "address",
          "name": "_from",
          "type": "address"
        },
        {
          "internalType": "address",
          "name": "_to",
          "type": "address"
        },
        {
          "internalType": "uint256",
          "name": "_tokenId",
          "type": "uint256"
        }
      ],
      "name": "transferFrom",
      "outputs": [],
      "stateMutability": "payable",
      "type": "function"
    }
  ],
  "bytecode": "0x60806040523480156200001157600080fd5b506040516200128e3803806200128e8339818101604052810190620000379190620002c2565b818181600090805190602001906200005192919062000075565b5080600190805190602001906200006a92919062000075565b5050505050620003ab565b828054620000839062000376565b90600052602060002090601f016020900481019282620000a75760008555620000f3565b82601f10620000c257805160ff1916838001178555620000f3565b82800160010185558215620000f3579182015b82811115620000f2578251825591602001919060010190620000d5565b5b50905062000102919062000106565b5090565b5b808211156200012157600081600090555060010162000107565b5090565b6000604051905090565b600080fd5b600080fd5b600080fd5b600080fd5b6000601f19601f8301169050919050565b7f4e487b7100000000000000000000000000000000000000000000000000000000600052604160045260246000fd5b6200018e8262000143565b810181811067ffffffffffffffff82111715620001b057620001af62000154565b5b80604052505050565b6000620001c562000125565b9050620001d3828262000183565b919050565b600067ffffffffffffffff821115620001f657620001f562000154565b5b620002018262000143565b9050602081019050919050565b60005b838110156200022e57808201518184015260208101905062000211565b838111156200023e576000848401525b50505050565b60006200025b6200025584620001d8565b620001b9565b9050828152602081018484840111156200027a57620002796200013e565b5b620002878482856200020e565b509392505050565b600082601f830112620002a757620002a662000139565b5b8151620002b984826020860162000244565b91505092915050565b60008060408385031215620002dc57620002db6200012f565b5b600083015167ffffffffffffffff811115620002fd57620002fc62000134565b5b6200030b858286016200028f565b925050602083015167ffffffffffffffff8111156200032f576200032e62000134565b5b6200033d858286016200028f565b9150509250929050565b7f4e487b7100000000000000000000000000000000000000000000000000000000600052602260045260246000fd5b600060028204905060018216806200038f57607f821691505b602082108103620003a557620003a462000347565b5b50919050565b610ed380620003bb6000396000f3fe60806040526004361061007b5760003560e01c80632f745c591161004e5780632f745c591461011d5780634f6ccce71461015a5780636352211e1461019757806370a08231146101d45761007b565b8063150704011461008057806317d7de7c146100ab57806318160ddd146100d657806323b872dd14610101575b600080fd5b34801561008c57600080fd5b50610095610211565b6040516100a291906108f1565b60405180910390f35b3480156100b757600080fd5b506100c06102a3565b6040516100cd91906108f1565b60405180910390f35b3480156100e257600080fd5b506100eb610335565b6040516100f8919061092c565b60405180910390f35b61011b600480360381019061011691906109d6565b610342565b005b34801561012957600080fd5b50610144600480360381019061013f9190610a29565b610352565b604051610151919061092c565b60405180910390f35b34801561016657600080fd5b50610181600480360381019061017c9190610a69565b61043a565b60405161018e919061092c565b60405180910390f35b3480156101a357600080fd5b506101be60048036038101906101b99190610a69565b6104ab565b6040516101cb9190610aa5565b60405180910390f35b3480156101e057600080fd5b506101fb60048036038101906101f69190610ac0565b61055c565b604051610208919061092c565b60405180910390f35b60606001805461022090610b1c565b80601f016020809104026020016040519081016040528092919081815260200182805461024c90610b1c565b80156102995780601f1061026e57610100808354040283529160200191610299565b820191906000526020600020905b81548152906001019060200180831161027c57829003601f168201915b5050505050905090565b6060600080546102b290610b1c565b80601f01602080910402602001604051908101604052809291908181526020018280546102de90610b1c565b801561032b5780601f106103005761010080835404028352916020019161032b565b820191906000526020600020905b81548152906001019060200180831161030e57829003601f168201915b5050505050905090565b6000600580549050905090565b61034d838383610613565b505050565b60008073ffffffffffffffffffffffffffffffffffffffff168373ffffffffffffffffffffffffffffffffffffffff16036103c2576040517f08c379a00000000000000000000000000000000000000000000000000000000081526004016103b990610b99565b60405180910390fd5b6103cb8361055c565b82106103d657600080fd5b600760008473ffffffffffffffffffffffffffffffffffffffff1673ffffffffffffffffffffffffffffffffffffffff168152602001908152602001600020828154811061042757610426610bb9565b5b9060005260206000200154905092915050565b6000610444610335565b8210610485576040517f08c379a000000000000000000000000000000000000000000000000000000000815260040161047c90610c34565b60405180910390fd5b6005828154811061049957610498610bb9565b5b90600052602060002001549050919050565b6000806002600084815260200190815260200160002060009054906101000a900473ffffffffffffffffffffffffffffffffffffffff169050600073ffffffffffffffffffffffffffffffffffffffff168173ffffffffffffffffffffffffffffffffffffffff1603610553576040517f08c379a000000000000000000000000000000000000000000000000000000000815260040161054a90610cc6565b60405180910390fd5b80915050919050565b60008073ffffffffffffffffffffffffffffffffffffffff168273ffffffffffffffffffffffffffffffffffffffff16036105cc576040517f08c379a00000000000000000000000000000000000000000000000000000000081526004016105c390610d32565b60405180910390fd5b600360008373ffffffffffffffffffffffffffffffffffffffff1673ffffffffffffffffffffffffffffffffffffffff168152602001908152602001600020549050919050565b61061c816104ab565b73ffffffffffffffffffffffffffffffffffffffff168373ffffffffffffffffffffffffffffffffffffffff1614610689576040517f08c379a000000000000000000000000000000000000000000000000000000000815260040161068090610dc4565b60405180910390fd5b600073ffffffffffffffffffffffffffffffffffffffff168273ffffffffffffffffffffffffffffffffffffffff16036106f8576040517f08c379a00000000000000000000000000000000000000000000000000000000081526004016106ef90610b99565b60405180910390fd5b6001600360008573ffffffffffffffffffffffffffffffffffffffff1673ffffffffffffffffffffffffffffffffffffffff16815260200190815260200160002060008282546107489190610e13565b925050819055506001600360008473ffffffffffffffffffffffffffffffffffffffff1673ffffffffffffffffffffffffffffffffffffffff168152602001908152602001600020600082825461079f9190610e47565b92505081905550816002600083815260200190815260200160002060006101000a81548173ffffffffffffffffffffffffffffffffffffffff021916908373ffffffffffffffffffffffffffffffffffffffff160217905550808273ffffffffffffffffffffffffffffffffffffffff168473ffffffffffffffffffffffffffffffffffffffff167fddf252ad1be2c89b69c2b068fc378daa952ba7f163c4a11628f55a4df523b3ef60405160405180910390a4505050565b600081519050919050565b600082825260208201905092915050565b60005b83811015610892578082015181840152602081019050610877565b838111156108a1576000848401525b50505050565b6000601f19601f8301169050919050565b60006108c382610858565b6108cd8185610863565b93506108dd818560208601610874565b6108e6816108a7565b840191505092915050565b6000602082019050818103600083015261090b81846108b8565b905092915050565b6000819050919050565b61092681610913565b82525050565b6000602082019050610941600083018461091d565b92915050565b600080fd5b600073ffffffffffffffffffffffffffffffffffffffff82169050919050565b60006109778261094c565b9050919050565b6109878161096c565b811461099257600080fd5b50565b6000813590506109a48161097e565b92915050565b6109b381610913565b81146109be57600080fd5b50565b6000813590506109d0816109aa565b92915050565b6000806000606084860312156109ef576109ee610947565b5b60006109fd86828701610995565b9350506020610a0e86828701610995565b9250506040610a1f868287016109c1565b9150509250925092565b60008060408385031215610a4057610a3f610947565b5b6000610a4e85828601610995565b9250506020610a5f858286016109c1565b9150509250929050565b600060208284031215610a7f57610a7e610947565b5b6000610a8d848285016109c1565b91505092915050565b610a9f8161096c565b82525050565b6000602082019050610aba6000830184610a96565b92915050565b600060208284031215610ad657610ad5610947565b5b6000610ae484828501610995565b91505092915050565b7f4e487b7100000000000000000000000000000000000000000000000000000000600052602260045260246000fd5b60006002820490506001821680610b3457607f821691505b602082108103610b4757610b46610aed565b5b50919050565b7f496e76616c696420616464726573732100000000000000000000000000000000600082015250565b6000610b83601083610863565b9150610b8e82610b4d565b602082019050919050565b60006020820190508181036000830152610bb281610b76565b9050919050565b7f4e487b7100000000000000000000000000000000000000000000000000000000600052603260045260246000fd5b7f496e646578206f7574206f6620626f756e647321000000000000000000000000600082015250565b6000610c1e601483610863565b9150610c2982610be8565b602082019050919050565b60006020820190508181036000830152610c4d81610c11565b9050919050565b7f4572726f72202d20496e76616c6964206f776e6572206164647265737320666f60008201527f756e642100000000000000000000000000000000000000000000000000000000602082015250565b6000610cb0602483610863565b9150610cbb82610c54565b604082019050919050565b60006020820190508181036000830152610cdf81610ca3565b9050919050565b7f4572726f72202d20496e76616c6964206f776e65722061646472657373000000600082015250565b6000610d1c601d83610863565b9150610d2782610ce6565b602082019050919050565b60006020820190508181036000830152610d4b81610d0f565b9050919050565b7f46726f6d206164647265737320646f6573206e6f74206d61746368207468652060008201527f546f6b656e206f776e6572000000000000000000000000000000000000000000602082015250565b6000610dae602b83610863565b9150610db982610d52565b604082019050919050565b60006020820190508181036000830152610ddd81610da1565b9050919050565b7f4e487b7100000000000000000000000000000000000000000000000000000000600052601160045260246000fd5b6000610e1e82610913565b9150610e2983610913565b925082821015610e3c57610e3b610de4565b5b828203905092915050565b6000610e5282610913565b9150610e5d83610913565b9250827fffffffffffffffffffffffffffffffffffffffffffffffffffffffffffffffff03821115610e9257610e91610de4565b5b82820190509291505056fea2646970667358221220af6549b2787dae44605843cb74a98fc0ce70319b6d0d3e3beeb369d339b9c28464736f6c634300080d0033",
  "immutableReferences": {},
  "source": "// SPDX-License-Identifier: MIT\r\n\r\npragma solidity ^0.8.0;\r\n\r\nimport './ERC721Metadata.sol';\r\nimport './ERC721Enumerable.sol';\r\n\r\ncontract ERC721Connector is ERC721Metdata, ERC721Enumerable {\r\n\r\n    constructor(string memory _name, string memory _symbol) ERC721Metdata(_name, _symbol) {}\r\n\r\n}",
  "sourcePath": "C:\\Users\\Gauri\\Blockchain\\Udemy Course 3\\ERC_721_Project\\src\\contracts\\ERC721Connector.sol",
  "compiler": {
    "name": "solc",
    "version": "0.8.13+commit.abaa5c0e.Emscripten.clang"
  },
  "schemaVersion": "3.4.5",
  "updatedAt": "2022-03-24T04:55:54.788Z",
  "devdoc": {
    "kind": "dev",
    "methods": {
      "ownerOf(uint256)": {
        "details": "NFTs assigned to zero address are considered invalid, and queries  about them do throw.",
        "params": {
          "_tokenId": "The identifier for an NFT"
        },
        "returns": {
          "_0": "The address of the owner of the NFT"
        }
      },
      "totalSupply()": {
        "returns": {
          "_0": "A count of valid NFTs tracked by this contract, where each one of  them has an assigned and queryable owner not equal to the zero address"
        }
      }
    },
    "version": 1
  },
  "userdoc": {
    "kind": "user",
    "methods": {
      "ownerOf(uint256)": {
        "notice": "Find the owner of an NFT"
      },
      "totalSupply()": {
        "notice": "Count NFTs tracked by this contract"
      }
    },
    "version": 1
  }
}