{
  "contractName": "ERC721",
  "abi": [
    {
      "anonymous": false,
      "inputs": [
        {
          "indexed": true,
          "internalType": "address",
          "name": "_from",
          "type": "address"
        },
        {
          "indexed": true,
          "internalType": "address",
          "name": "_to",
          "type": "address"
        },
        {
          "indexed": true,
          "internalType": "uint256",
          "name": "_tokenId",
          "type": "uint256"
        }
      ],
      "name": "Transfer",
      "type": "event"
    },
    {
      "inputs": [
        {
          "internalType": "address",
          "name": "_owner",
          "type": "address"
        }
      ],
      "name": "balanceOf",
      "outputs": [
        {
          "internalType": "uint256",
          "name": "",
          "type": "uint256"
        }
      ],
      "stateMutability": "view",
      "type": "function"
    },
    {
      "inputs": [
        {
          "internalType": "uint256",
          "name": "_tokenId",
          "type": "uint256"
        }
      ],
      "name": "ownerOf",
      "outputs": [
        {
          "internalType": "address",
          "name": "",
          "type": "address"
        }
      ],
      "stateMutability": "view",
      "type": "function"
    },
    {
      "inputs": [
        {
          "internalType": "address",
          "name": "_from",
          "type": "address"
        },
        {
          "internalType": "address",
          "name": "_to",
          "type": "address"
        },
        {
          "internalType": "uint256",
          "name": "_tokenId",
          "type": "uint256"
        }
      ],
      "name": "transferFrom",
      "outputs": [],
      "stateMutability": "payable",
      "type": "function"
    }
  ],
  "bytecode": "0x608060405234801561001057600080fd5b5061091e806100206000396000f3fe6080604052600436106100345760003560e01c806323b872dd146100395780636352211e1461005557806370a0823114610092575b600080fd5b610053600480360381019061004e9190610521565b6100cf565b005b34801561006157600080fd5b5061007c60048036038101906100779190610574565b6100df565b60405161008991906105b0565b60405180910390f35b34801561009e57600080fd5b506100b960048036038101906100b491906105cb565b61018f565b6040516100c69190610607565b60405180910390f35b6100da838383610246565b505050565b60008060008084815260200190815260200160002060009054906101000a900473ffffffffffffffffffffffffffffffffffffffff169050600073ffffffffffffffffffffffffffffffffffffffff168173ffffffffffffffffffffffffffffffffffffffff1603610186576040517f08c379a000000000000000000000000000000000000000000000000000000000815260040161017d906106a5565b60405180910390fd5b80915050919050565b60008073ffffffffffffffffffffffffffffffffffffffff168273ffffffffffffffffffffffffffffffffffffffff16036101ff576040517f08c379a00000000000000000000000000000000000000000000000000000000081526004016101f690610711565b60405180910390fd5b600160008373ffffffffffffffffffffffffffffffffffffffff1673ffffffffffffffffffffffffffffffffffffffff168152602001908152602001600020549050919050565b61024f816100df565b73ffffffffffffffffffffffffffffffffffffffff168373ffffffffffffffffffffffffffffffffffffffff16146102bc576040517f08c379a00000000000000000000000000000000000000000000000000000000081526004016102b3906107a3565b60405180910390fd5b600073ffffffffffffffffffffffffffffffffffffffff168273ffffffffffffffffffffffffffffffffffffffff160361032b576040517f08c379a00000000000000000000000000000000000000000000000000000000081526004016103229061080f565b60405180910390fd5b60018060008573ffffffffffffffffffffffffffffffffffffffff1673ffffffffffffffffffffffffffffffffffffffff168152602001908152602001600020600082825461037a919061085e565b9250508190555060018060008473ffffffffffffffffffffffffffffffffffffffff1673ffffffffffffffffffffffffffffffffffffffff16815260200190815260200160002060008282546103d09190610892565b925050819055508160008083815260200190815260200160002060006101000a81548173ffffffffffffffffffffffffffffffffffffffff021916908373ffffffffffffffffffffffffffffffffffffffff160217905550808273ffffffffffffffffffffffffffffffffffffffff168473ffffffffffffffffffffffffffffffffffffffff167fddf252ad1be2c89b69c2b068fc378daa952ba7f163c4a11628f55a4df523b3ef60405160405180910390a4505050565b600080fd5b600073ffffffffffffffffffffffffffffffffffffffff82169050919050565b60006104b88261048d565b9050919050565b6104c8816104ad565b81146104d357600080fd5b50565b6000813590506104e5816104bf565b92915050565b6000819050919050565b6104fe816104eb565b811461050957600080fd5b50565b60008135905061051b816104f5565b92915050565b60008060006060848603121561053a57610539610488565b5b6000610548868287016104d6565b9350506020610559868287016104d6565b925050604061056a8682870161050c565b9150509250925092565b60006020828403121561058a57610589610488565b5b60006105988482850161050c565b91505092915050565b6105aa816104ad565b82525050565b60006020820190506105c560008301846105a1565b92915050565b6000602082840312156105e1576105e0610488565b5b60006105ef848285016104d6565b91505092915050565b610601816104eb565b82525050565b600060208201905061061c60008301846105f8565b92915050565b600082825260208201905092915050565b7f4572726f72202d20496e76616c6964206f776e6572206164647265737320666f60008201527f756e642100000000000000000000000000000000000000000000000000000000602082015250565b600061068f602483610622565b915061069a82610633565b604082019050919050565b600060208201905081810360008301526106be81610682565b9050919050565b7f4572726f72202d20496e76616c6964206f776e65722061646472657373000000600082015250565b60006106fb601d83610622565b9150610706826106c5565b602082019050919050565b6000602082019050818103600083015261072a816106ee565b9050919050565b7f46726f6d206164647265737320646f6573206e6f74206d61746368207468652060008201527f546f6b656e206f776e6572000000000000000000000000000000000000000000602082015250565b600061078d602b83610622565b915061079882610731565b604082019050919050565b600060208201905081810360008301526107bc81610780565b9050919050565b7f496e76616c696420616464726573732100000000000000000000000000000000600082015250565b60006107f9601083610622565b9150610804826107c3565b602082019050919050565b60006020820190508181036000830152610828816107ec565b9050919050565b7f4e487b7100000000000000000000000000000000000000000000000000000000600052601160045260246000fd5b6000610869826104eb565b9150610874836104eb565b9250828210156108875761088661082f565b5b828203905092915050565b600061089d826104eb565b91506108a8836104eb565b9250827fffffffffffffffffffffffffffffffffffffffffffffffffffffffffffffffff038211156108dd576108dc61082f565b5b82820190509291505056fea264697066735822122090efaaed0ed66ac0aceb1518421954b7e497b56b300c87ffdbf6fcfdf25f497464736f6c634300080d0033",
  "immutableReferences": {},
  "source": "// SPDX-License-Identifier: MIT\r\n\r\npragma solidity ^0.8.0;\r\n\r\ncontract ERC721 {\r\n\r\n    // Event for Transfer of tokens\r\n    event Transfer(address indexed _from , address indexed _to, uint256 indexed _tokenId);\r\n\r\n    // mapping to get the address of owner for each token\r\n    mapping(uint256 => address) private _tokenOwner;\r\n    // mapping to get the number of tokens owned by each address\r\n    mapping(address => uint256) private _ownedTokensCount;\r\n    // mapping from token Id to the approved address\r\n    mapping(uint256 => address) private _tokenIdApprovals;\r\n\r\n    function balanceOf(address _owner) public view returns(uint256) {\r\n        require(_owner != address(0),\"Error - Invalid owner address\");\r\n        return _ownedTokensCount[_owner];\r\n    }\r\n\r\n    /// @notice Find the owner of an NFT\r\n    /// @dev NFTs assigned to zero address are considered invalid, and queries\r\n    ///  about them do throw.\r\n    /// @param _tokenId The identifier for an NFT\r\n    /// @return The address of the owner of the NFT\r\n    function ownerOf(uint256 _tokenId) public view returns(address) {\r\n        address owner = _tokenOwner[_tokenId];\r\n        require(owner != address(0), \"Error - Invalid owner address found!\");\r\n        return owner;\r\n    }\r\n\r\n    // check whether a token exists\r\n    function exists(uint256 _tokenId) internal view returns(bool) {\r\n        address tokenOwner =_tokenOwner[_tokenId];\r\n        return (tokenOwner != address(0));\r\n    }\r\n\r\n    // minting function\r\n    function _mint(address _to, uint256 _tokenId) internal virtual {\r\n        require(!exists(_tokenId), \"Invalid address found!\");\r\n        require(_tokenOwner[_tokenId] == address(0),\"Token already minted!\");\r\n\r\n        // map the newly minted token to the owner address\r\n        _tokenOwner[_tokenId] = _to;\r\n        // increase the count of tokens owned by the owner address\r\n        _ownedTokensCount[_to] += 1;\r\n        // emit Transfer event\r\n        emit Transfer(address(0), _to, _tokenId);\r\n    }\r\n\r\n    // main _transfer from function with logic\r\n    // kept internal for security\r\n    // this function will be invoked by another transferFrom public function\r\n    function _transferFrom(address _from, address _to, uint256 _tokenId) internal {\r\n        require(_from == ownerOf(_tokenId),\"From address does not match the Token owner\");\r\n        require(_to != address(0), \"Invalid address!\");\r\n\r\n        // deduct NFT count from old owner\r\n        _ownedTokensCount[_from] -= 1;\r\n        // add NFT count to new owner\r\n        _ownedTokensCount[_to] += 1;\r\n        // change the owner of NFT\r\n        _tokenOwner[_tokenId] = _to;\r\n\r\n        emit Transfer(_from, _to, _tokenId);\r\n    }\r\n\r\n    // transferFrom function with public visibility\r\n    // invokes the internal _transferFrom function\r\n    function transferFrom(address _from,address _to,uint256 _tokenId) public payable {\r\n        _transferFrom(_from, _to, _tokenId);\r\n    }\r\n}",
  "sourcePath": "C:\\Users\\Gauri\\Blockchain\\Udemy Course 3\\ERC_721_Project\\src\\contracts\\ERC721.sol",
  "compiler": {
    "name": "solc",
    "version": "0.8.13+commit.abaa5c0e.Emscripten.clang"
  },
  "schemaVersion": "3.4.5",
  "updatedAt": "2022-03-24T04:55:54.756Z",
  "devdoc": {
    "kind": "dev",
    "methods": {
      "ownerOf(uint256)": {
        "details": "NFTs assigned to zero address are considered invalid, and queries  about them do throw.",
        "params": {
          "_tokenId": "The identifier for an NFT"
        },
        "returns": {
          "_0": "The address of the owner of the NFT"
        }
      }
    },
    "version": 1
  },
  "userdoc": {
    "kind": "user",
    "methods": {
      "ownerOf(uint256)": {
        "notice": "Find the owner of an NFT"
      }
    },
    "version": 1
  }
}