{
  "contractName": "ERC721Connector",
  "abi": [
    {
      "inputs": [
        {
          "internalType": "string",
          "name": "_name",
          "type": "string"
        },
        {
          "internalType": "string",
          "name": "_symbol",
          "type": "string"
        }
      ],
      "stateMutability": "nonpayable",
      "type": "constructor"
    },
    {
      "anonymous": false,
      "inputs": [
        {
          "indexed": true,
          "internalType": "address",
          "name": "_owner",
          "type": "address"
        },
        {
          "indexed": true,
          "internalType": "address",
          "name": "_approved",
          "type": "address"
        },
        {
          "indexed": true,
          "internalType": "uint256",
          "name": "_tokenId",
          "type": "uint256"
        }
      ],
      "name": "Approval",
      "type": "event"
    },
    {
      "anonymous": false,
      "inputs": [
        {
          "indexed": true,
          "internalType": "address",
          "name": "_owner",
          "type": "address"
        },
        {
          "indexed": true,
          "internalType": "address",
          "name": "_operator",
          "type": "address"
        },
        {
          "indexed": false,
          "internalType": "bool",
          "name": "_approved",
          "type": "bool"
        }
      ],
      "name": "ApprovalForAll",
      "type": "event"
    },
    {
      "anonymous": false,
      "inputs": [
        {
          "indexed": true,
          "internalType": "address",
          "name": "_from",
          "type": "address"
        },
        {
          "indexed": true,
          "internalType": "address",
          "name": "_to",
          "type": "address"
        },
        {
          "indexed": true,
          "internalType": "uint256",
          "name": "_tokenId",
          "type": "uint256"
        }
      ],
      "name": "Transfer",
      "type": "event"
    },
    {
      "inputs": [
        {
          "internalType": "address",
          "name": "_to",
          "type": "address"
        },
        {
          "internalType": "uint256",
          "name": "_tokenId",
          "type": "uint256"
        }
      ],
      "name": "approve",
      "outputs": [],
      "stateMutability": "nonpayable",
      "type": "function"
    },
    {
      "inputs": [
        {
          "internalType": "address",
          "name": "_owner",
          "type": "address"
        }
      ],
      "name": "balanceOf",
      "outputs": [
        {
          "internalType": "uint256",
          "name": "",
          "type": "uint256"
        }
      ],
      "stateMutability": "view",
      "type": "function"
    },
    {
      "inputs": [],
      "name": "getName",
      "outputs": [
        {
          "internalType": "string",
          "name": "",
          "type": "string"
        }
      ],
      "stateMutability": "view",
      "type": "function"
    },
    {
      "inputs": [],
      "name": "getSymbol",
      "outputs": [
        {
          "internalType": "string",
          "name": "",
          "type": "string"
        }
      ],
      "stateMutability": "view",
      "type": "function"
    },
    {
      "inputs": [
        {
          "internalType": "uint256",
          "name": "_tokenId",
          "type": "uint256"
        }
      ],
      "name": "ownerOf",
      "outputs": [
        {
          "internalType": "address",
          "name": "",
          "type": "address"
        }
      ],
      "stateMutability": "view",
      "type": "function"
    },
    {
      "inputs": [
        {
          "internalType": "bytes4",
          "name": "interfaceID",
          "type": "bytes4"
        }
      ],
      "name": "supportsInterface",
      "outputs": [
        {
          "internalType": "bool",
          "name": "",
          "type": "bool"
        }
      ],
      "stateMutability": "view",
      "type": "function"
    },
    {
      "inputs": [
        {
          "internalType": "uint256",
          "name": "_index",
          "type": "uint256"
        }
      ],
      "name": "tokenByIndex",
      "outputs": [
        {
          "internalType": "uint256",
          "name": "",
          "type": "uint256"
        }
      ],
      "stateMutability": "view",
      "type": "function"
    },
    {
      "inputs": [
        {
          "internalType": "address",
          "name": "_owner",
          "type": "address"
        },
        {
          "internalType": "uint256",
          "name": "_index",
          "type": "uint256"
        }
      ],
      "name": "tokenOfOwnerByIndex",
      "outputs": [
        {
          "internalType": "uint256",
          "name": "",
          "type": "uint256"
        }
      ],
      "stateMutability": "view",
      "type": "function"
    },
    {
      "inputs": [],
      "name": "totalSupply",
      "outputs": [
        {
          "internalType": "uint256",
          "name": "",
          "type": "uint256"
        }
      ],
      "stateMutability": "view",
      "type": "function"
    },
    {
      "inputs": [
        {
          "internalType": "address",
          "name": "_from",
          "type": "address"
        },
        {
          "internalType": "address",
          "name": "_to",
          "type": "address"
        },
        {
          "internalType": "uint256",
          "name": "_tokenId",
          "type": "uint256"
        }
      ],
      "name": "transferFrom",
      "outputs": [],
      "stateMutability": "payable",
      "type": "function"
    }
  ],
  "bytecode": "0x60806040523480156200001157600080fd5b5060405162001d4338038062001d43833981810160405281019062000037919062000303565b818181600090816200004a9190620005d3565b5080600190816200005c9190620005d3565b505050620000907f01ffc9a7a5cef8baa21ed3c5c0d7e23accb804b619e9333b597f47a0d84076e26200009860201b60201c565b50506200073d565b63ffffffff60e01b817bffffffffffffffffffffffffffffffffffffffffffffffffffffffff19160362000103576040517f08c379a0000000000000000000000000000000000000000000000000000000008152600401620000fa906200071b565b60405180910390fd5b600160026000837bffffffffffffffffffffffffffffffffffffffffffffffffffffffff19167bffffffffffffffffffffffffffffffffffffffffffffffffffffffff1916815260200190815260200160002060006101000a81548160ff02191690831515021790555050565b6000604051905090565b600080fd5b600080fd5b600080fd5b600080fd5b6000601f19601f8301169050919050565b7f4e487b7100000000000000000000000000000000000000000000000000000000600052604160045260246000fd5b620001d9826200018e565b810181811067ffffffffffffffff82111715620001fb57620001fa6200019f565b5b80604052505050565b60006200021062000170565b90506200021e8282620001ce565b919050565b600067ffffffffffffffff8211156200024157620002406200019f565b5b6200024c826200018e565b9050602081019050919050565b60005b83811015620002795780820151818401526020810190506200025c565b60008484015250505050565b60006200029c620002968462000223565b62000204565b905082815260208101848484011115620002bb57620002ba62000189565b5b620002c884828562000259565b509392505050565b600082601f830112620002e857620002e762000184565b5b8151620002fa84826020860162000285565b91505092915050565b600080604083850312156200031d576200031c6200017a565b5b600083015167ffffffffffffffff8111156200033e576200033d6200017f565b5b6200034c85828601620002d0565b925050602083015167ffffffffffffffff81111562000370576200036f6200017f565b5b6200037e85828601620002d0565b9150509250929050565b600081519050919050565b7f4e487b7100000000000000000000000000000000000000000000000000000000600052602260045260246000fd5b60006002820490506001821680620003db57607f821691505b602082108103620003f157620003f062000393565b5b50919050565b60008190508160005260206000209050919050565b60006020601f8301049050919050565b600082821b905092915050565b6000600883026200045b7fffffffffffffffffffffffffffffffffffffffffffffffffffffffffffffffff826200041c565b6200046786836200041c565b95508019841693508086168417925050509392505050565b6000819050919050565b6000819050919050565b6000620004b4620004ae620004a8846200047f565b62000489565b6200047f565b9050919050565b6000819050919050565b620004d08362000493565b620004e8620004df82620004bb565b84845462000429565b825550505050565b600090565b620004ff620004f0565b6200050c818484620004c5565b505050565b5b81811015620005345762000528600082620004f5565b60018101905062000512565b5050565b601f82111562000583576200054d81620003f7565b62000558846200040c565b8101602085101562000568578190505b6200058062000577856200040c565b83018262000511565b50505b505050565b600082821c905092915050565b6000620005a86000198460080262000588565b1980831691505092915050565b6000620005c3838362000595565b9150826002028217905092915050565b620005de8262000388565b67ffffffffffffffff811115620005fa57620005f96200019f565b5b620006068254620003c2565b6200061382828562000538565b600060209050601f8311600181146200064b576000841562000636578287015190505b620006428582620005b5565b865550620006b2565b601f1984166200065b86620003f7565b60005b8281101562000685578489015182556001820191506020850194506020810190506200065e565b86831015620006a55784890151620006a1601f89168262000595565b8355505b6001600288020188555050505b505050505050565b600082825260208201905092915050565b7f496e76616c696420696e74657266616365204944000000000000000000000000600082015250565b600062000703601483620006ba565b91506200071082620006cb565b602082019050919050565b600060208201905081810360008301526200073681620006f4565b9050919050565b6115f6806200074d6000396000f3fe6080604052600436106100915760003560e01c806323b872dd1161005957806323b872dd1461017d5780632f745c59146101995780634f6ccce7146101d65780636352211e1461021357806370a082311461025057610091565b806301ffc9a714610096578063095ea7b3146100d357806315070401146100fc57806317d7de7c1461012757806318160ddd14610152575b600080fd5b3480156100a257600080fd5b506100bd60048036038101906100b89190610d4c565b61028d565b6040516100ca9190610d94565b60405180910390f35b3480156100df57600080fd5b506100fa60048036038101906100f59190610e43565b6102f5565b005b34801561010857600080fd5b50610111610490565b60405161011e9190610f13565b60405180910390f35b34801561013357600080fd5b5061013c610522565b6040516101499190610f13565b60405180910390f35b34801561015e57600080fd5b506101676105b4565b6040516101749190610f44565b60405180910390f35b61019760048036038101906101929190610f5f565b6105c1565b005b3480156101a557600080fd5b506101c060048036038101906101bb9190610e43565b61061a565b6040516101cd9190610f44565b60405180910390f35b3480156101e257600080fd5b506101fd60048036038101906101f89190610fb2565b610702565b60405161020a9190610f44565b60405180910390f35b34801561021f57600080fd5b5061023a60048036038101906102359190610fb2565b610773565b6040516102479190610fee565b60405180910390f35b34801561025c57600080fd5b5061027760048036038101906102729190611009565b610824565b6040516102849190610f44565b60405180910390f35b600060026000837bffffffffffffffffffffffffffffffffffffffffffffffffffffffff19167bffffffffffffffffffffffffffffffffffffffffffffffffffffffff1916815260200190815260200160002060009054906101000a900460ff169050919050565b600061030082610773565b90508073ffffffffffffffffffffffffffffffffffffffff168373ffffffffffffffffffffffffffffffffffffffff1603610370576040517f08c379a0000000000000000000000000000000000000000000000000000000008152600401610367906110a8565b60405180910390fd5b8073ffffffffffffffffffffffffffffffffffffffff163373ffffffffffffffffffffffffffffffffffffffff16146103de576040517f08c379a00000000000000000000000000000000000000000000000000000000081526004016103d590611114565b60405180910390fd5b826005600084815260200190815260200160002060006101000a81548173ffffffffffffffffffffffffffffffffffffffff021916908373ffffffffffffffffffffffffffffffffffffffff160217905550818373ffffffffffffffffffffffffffffffffffffffff163373ffffffffffffffffffffffffffffffffffffffff167f8c5be1e5ebec7d5bd14f71427d1e84f3dd0314c0f7b2291e5b200ac8c7c3b92560405160405180910390a4505050565b60606001805461049f90611163565b80601f01602080910402602001604051908101604052809291908181526020018280546104cb90611163565b80156105185780601f106104ed57610100808354040283529160200191610518565b820191906000526020600020905b8154815290600101906020018083116104fb57829003601f168201915b5050505050905090565b60606000805461053190611163565b80601f016020809104026020016040519081016040528092919081815260200182805461055d90611163565b80156105aa5780601f1061057f576101008083540402835291602001916105aa565b820191906000526020600020905b81548152906001019060200180831161058d57829003601f168201915b5050505050905090565b6000600680549050905090565b6105cb33826108db565b61060a576040517f08c379a000000000000000000000000000000000000000000000000000000000815260040161060190611206565b60405180910390fd5b6106158383836109b3565b505050565b60008073ffffffffffffffffffffffffffffffffffffffff168373ffffffffffffffffffffffffffffffffffffffff160361068a576040517f08c379a000000000000000000000000000000000000000000000000000000000815260040161068190611272565b60405180910390fd5b61069383610824565b821061069e57600080fd5b600860008473ffffffffffffffffffffffffffffffffffffffff1673ffffffffffffffffffffffffffffffffffffffff16815260200190815260200160002082815481106106ef576106ee611292565b5b9060005260206000200154905092915050565b600061070c6105b4565b821061074d576040517f08c379a00000000000000000000000000000000000000000000000000000000081526004016107449061130d565b60405180910390fd5b6006828154811061076157610760611292565b5b90600052602060002001549050919050565b6000806003600084815260200190815260200160002060009054906101000a900473ffffffffffffffffffffffffffffffffffffffff169050600073ffffffffffffffffffffffffffffffffffffffff168173ffffffffffffffffffffffffffffffffffffffff160361081b576040517f08c379a00000000000000000000000000000000000000000000000000000000081526004016108129061139f565b60405180910390fd5b80915050919050565b60008073ffffffffffffffffffffffffffffffffffffffff168273ffffffffffffffffffffffffffffffffffffffff1603610894576040517f08c379a000000000000000000000000000000000000000000000000000000000815260040161088b9061140b565b60405180910390fd5b600460008373ffffffffffffffffffffffffffffffffffffffff1673ffffffffffffffffffffffffffffffffffffffff168152602001908152602001600020549050919050565b60006108e682610bf8565b610925576040517f08c379a000000000000000000000000000000000000000000000000000000000815260040161091c90611477565b60405180910390fd5b600061093083610773565b90508373ffffffffffffffffffffffffffffffffffffffff168173ffffffffffffffffffffffffffffffffffffffff16148061099f57508373ffffffffffffffffffffffffffffffffffffffff1661098784610c6a565b73ffffffffffffffffffffffffffffffffffffffff16145b6109a857600080fd5b600191505092915050565b6109bc81610773565b73ffffffffffffffffffffffffffffffffffffffff168373ffffffffffffffffffffffffffffffffffffffff1614610a29576040517f08c379a0000000000000000000000000000000000000000000000000000000008152600401610a2090611509565b60405180910390fd5b600073ffffffffffffffffffffffffffffffffffffffff168273ffffffffffffffffffffffffffffffffffffffff1603610a98576040517f08c379a0000000000000000000000000000000000000000000000000000000008152600401610a8f90611272565b60405180910390fd5b6001600460008573ffffffffffffffffffffffffffffffffffffffff1673ffffffffffffffffffffffffffffffffffffffff1681526020019081526020016000206000828254610ae89190611558565b925050819055506001600460008473ffffffffffffffffffffffffffffffffffffffff1673ffffffffffffffffffffffffffffffffffffffff1681526020019081526020016000206000828254610b3f919061158c565b92505081905550816003600083815260200190815260200160002060006101000a81548173ffffffffffffffffffffffffffffffffffffffff021916908373ffffffffffffffffffffffffffffffffffffffff160217905550808273ffffffffffffffffffffffffffffffffffffffff168473ffffffffffffffffffffffffffffffffffffffff167fddf252ad1be2c89b69c2b068fc378daa952ba7f163c4a11628f55a4df523b3ef60405160405180910390a4505050565b6000806003600084815260200190815260200160002060009054906101000a900473ffffffffffffffffffffffffffffffffffffffff169050600073ffffffffffffffffffffffffffffffffffffffff168173ffffffffffffffffffffffffffffffffffffffff161415915050919050565b6000610c7582610bf8565b610cb4576040517f08c379a0000000000000000000000000000000000000000000000000000000008152600401610cab90611477565b60405180910390fd5b6005600083815260200190815260200160002060009054906101000a900473ffffffffffffffffffffffffffffffffffffffff169050919050565b600080fd5b60007fffffffff0000000000000000000000000000000000000000000000000000000082169050919050565b610d2981610cf4565b8114610d3457600080fd5b50565b600081359050610d4681610d20565b92915050565b600060208284031215610d6257610d61610cef565b5b6000610d7084828501610d37565b91505092915050565b60008115159050919050565b610d8e81610d79565b82525050565b6000602082019050610da96000830184610d85565b92915050565b600073ffffffffffffffffffffffffffffffffffffffff82169050919050565b6000610dda82610daf565b9050919050565b610dea81610dcf565b8114610df557600080fd5b50565b600081359050610e0781610de1565b92915050565b6000819050919050565b610e2081610e0d565b8114610e2b57600080fd5b50565b600081359050610e3d81610e17565b92915050565b60008060408385031215610e5a57610e59610cef565b5b6000610e6885828601610df8565b9250506020610e7985828601610e2e565b9150509250929050565b600081519050919050565b600082825260208201905092915050565b60005b83811015610ebd578082015181840152602081019050610ea2565b60008484015250505050565b6000601f19601f8301169050919050565b6000610ee582610e83565b610eef8185610e8e565b9350610eff818560208601610e9f565b610f0881610ec9565b840191505092915050565b60006020820190508181036000830152610f2d8184610eda565b905092915050565b610f3e81610e0d565b82525050565b6000602082019050610f596000830184610f35565b92915050565b600080600060608486031215610f7857610f77610cef565b5b6000610f8686828701610df8565b9350506020610f9786828701610df8565b9250506040610fa886828701610e2e565b9150509250925092565b600060208284031215610fc857610fc7610cef565b5b6000610fd684828501610e2e565b91505092915050565b610fe881610dcf565b82525050565b60006020820190506110036000830184610fdf565b92915050565b60006020828403121561101f5761101e610cef565b5b600061102d84828501610df8565b91505092915050565b7f43616e6e6f7420617070726f7665206f776e6572206164647265737320666f7260008201527f2073616d6520746f6b656e000000000000000000000000000000000000000000602082015250565b6000611092602b83610e8e565b915061109d82611036565b604082019050919050565b600060208201905081810360008301526110c181611085565b9050919050565b7f4f6e6c79206f776e6572732063616e20617070726f7665000000000000000000600082015250565b60006110fe601783610e8e565b9150611109826110c8565b602082019050919050565b6000602082019050818103600083015261112d816110f1565b9050919050565b7f4e487b7100000000000000000000000000000000000000000000000000000000600052602260045260246000fd5b6000600282049050600182168061117b57607f821691505b60208210810361118e5761118d611134565b5b50919050565b7f4f6e6c79206f776e6572206f7220617070726f7665642061646472657373657360008201527f2063616e207472616e7366657220746f6b656e73000000000000000000000000602082015250565b60006111f0603483610e8e565b91506111fb82611194565b604082019050919050565b6000602082019050818103600083015261121f816111e3565b9050919050565b7f496e76616c696420616464726573732100000000000000000000000000000000600082015250565b600061125c601083610e8e565b915061126782611226565b602082019050919050565b6000602082019050818103600083015261128b8161124f565b9050919050565b7f4e487b7100000000000000000000000000000000000000000000000000000000600052603260045260246000fd5b7f496e646578206f7574206f6620626f756e647321000000000000000000000000600082015250565b60006112f7601483610e8e565b9150611302826112c1565b602082019050919050565b60006020820190508181036000830152611326816112ea565b9050919050565b7f4572726f72202d20496e76616c6964206f776e6572206164647265737320666f60008201527f756e642100000000000000000000000000000000000000000000000000000000602082015250565b6000611389602483610e8e565b91506113948261132d565b604082019050919050565b600060208201905081810360008301526113b88161137c565b9050919050565b7f4572726f72202d20496e76616c6964206f776e65722061646472657373000000600082015250565b60006113f5601d83610e8e565b9150611400826113bf565b602082019050919050565b60006020820190508181036000830152611424816113e8565b9050919050565b7f546f6b656e20646f6573206e6f74206578697374730000000000000000000000600082015250565b6000611461601583610e8e565b915061146c8261142b565b602082019050919050565b6000602082019050818103600083015261149081611454565b9050919050565b7f46726f6d206164647265737320646f6573206e6f74206d61746368207468652060008201527f546f6b656e206f776e6572000000000000000000000000000000000000000000602082015250565b60006114f3602b83610e8e565b91506114fe82611497565b604082019050919050565b60006020820190508181036000830152611522816114e6565b9050919050565b7f4e487b7100000000000000000000000000000000000000000000000000000000600052601160045260246000fd5b600061156382610e0d565b915061156e83610e0d565b925082820390508181111561158657611585611529565b5b92915050565b600061159782610e0d565b91506115a283610e0d565b92508282019050808211156115ba576115b9611529565b5b9291505056fea2646970667358221220097ce0c7d1e10fbd8c85a18161b962b41d0f82123705b602d7b65bb140f36b4764736f6c63430008110033",
  "immutableReferences": {},
  "source": "// SPDX-License-Identifier: MIT\r\n\r\npragma solidity ^0.8.0;\r\n\r\nimport './ERC721Metadata.sol';\r\nimport './ERC721Enumerable.sol';\r\n\r\ncontract ERC721Connector is ERC721Metdata, ERC721Enumerable {\r\n\r\n    constructor(string memory _name, string memory _symbol) ERC721Metdata(_name, _symbol) {}\r\n\r\n}",
  "sourcePath": "C:\\Gauri\\Blockchain Projects\\ERC721\\src\\contracts\\ERC721Connector.sol",
  "compiler": {
    "name": "solc",
    "version": "0.8.17+commit.8df45f5f.Emscripten.clang"
  },
  "schemaVersion": "3.4.9",
  "updatedAt": "2022-12-04T06:34:47.997Z",
  "devdoc": {
    "kind": "dev",
    "methods": {
      "supportsInterface(bytes4)": {
        "details": "Interface identification is specified in ERC-165. This function  uses less than 30,000 gas.",
        "params": {
          "interfaceID": "The interface identifier, as specified in ERC-165"
        },
        "returns": {
          "_0": "`true` if the contract implements `interfaceID` and  `interfaceID` is not 0xffffffff, `false` otherwise"
        }
      },
      "totalSupply()": {
        "returns": {
          "_0": "A count of valid NFTs tracked by this contract, where each one of  them has an assigned and queryable owner not equal to the zero address"
        }
      }
    },
    "version": 1
  },
  "userdoc": {
    "kind": "user",
    "methods": {
      "supportsInterface(bytes4)": {
        "notice": "Query if a contract implements an interface"
      },
      "totalSupply()": {
        "notice": "Count NFTs tracked by this contract"
      }
    },
    "version": 1
  }
}