{
  "contractName": "ERC721Enumerable",
  "abi": [
    {
      "anonymous": false,
      "inputs": [
        {
          "indexed": true,
          "internalType": "address",
          "name": "_owner",
          "type": "address"
        },
        {
          "indexed": true,
          "internalType": "address",
          "name": "_approved",
          "type": "address"
        },
        {
          "indexed": true,
          "internalType": "uint256",
          "name": "_tokenId",
          "type": "uint256"
        }
      ],
      "name": "Approval",
      "type": "event"
    },
    {
      "anonymous": false,
      "inputs": [
        {
          "indexed": true,
          "internalType": "address",
          "name": "_owner",
          "type": "address"
        },
        {
          "indexed": true,
          "internalType": "address",
          "name": "_operator",
          "type": "address"
        },
        {
          "indexed": false,
          "internalType": "bool",
          "name": "_approved",
          "type": "bool"
        }
      ],
      "name": "ApprovalForAll",
      "type": "event"
    },
    {
      "anonymous": false,
      "inputs": [
        {
          "indexed": true,
          "internalType": "address",
          "name": "_from",
          "type": "address"
        },
        {
          "indexed": true,
          "internalType": "address",
          "name": "_to",
          "type": "address"
        },
        {
          "indexed": true,
          "internalType": "uint256",
          "name": "_tokenId",
          "type": "uint256"
        }
      ],
      "name": "Transfer",
      "type": "event"
    },
    {
      "inputs": [
        {
          "internalType": "address",
          "name": "_to",
          "type": "address"
        },
        {
          "internalType": "uint256",
          "name": "_tokenId",
          "type": "uint256"
        }
      ],
      "name": "approve",
      "outputs": [],
      "stateMutability": "nonpayable",
      "type": "function"
    },
    {
      "inputs": [
        {
          "internalType": "address",
          "name": "_owner",
          "type": "address"
        }
      ],
      "name": "balanceOf",
      "outputs": [
        {
          "internalType": "uint256",
          "name": "",
          "type": "uint256"
        }
      ],
      "stateMutability": "view",
      "type": "function"
    },
    {
      "inputs": [
        {
          "internalType": "uint256",
          "name": "_tokenId",
          "type": "uint256"
        }
      ],
      "name": "ownerOf",
      "outputs": [
        {
          "internalType": "address",
          "name": "",
          "type": "address"
        }
      ],
      "stateMutability": "view",
      "type": "function"
    },
    {
      "inputs": [
        {
          "internalType": "bytes4",
          "name": "interfaceID",
          "type": "bytes4"
        }
      ],
      "name": "supportsInterface",
      "outputs": [
        {
          "internalType": "bool",
          "name": "",
          "type": "bool"
        }
      ],
      "stateMutability": "view",
      "type": "function"
    },
    {
      "inputs": [
        {
          "internalType": "address",
          "name": "_from",
          "type": "address"
        },
        {
          "internalType": "address",
          "name": "_to",
          "type": "address"
        },
        {
          "internalType": "uint256",
          "name": "_tokenId",
          "type": "uint256"
        }
      ],
      "name": "transferFrom",
      "outputs": [],
      "stateMutability": "payable",
      "type": "function"
    },
    {
      "inputs": [],
      "name": "totalSupply",
      "outputs": [
        {
          "internalType": "uint256",
          "name": "",
          "type": "uint256"
        }
      ],
      "stateMutability": "view",
      "type": "function"
    },
    {
      "inputs": [
        {
          "internalType": "uint256",
          "name": "_index",
          "type": "uint256"
        }
      ],
      "name": "tokenByIndex",
      "outputs": [
        {
          "internalType": "uint256",
          "name": "",
          "type": "uint256"
        }
      ],
      "stateMutability": "view",
      "type": "function"
    },
    {
      "inputs": [
        {
          "internalType": "address",
          "name": "_owner",
          "type": "address"
        },
        {
          "internalType": "uint256",
          "name": "_index",
          "type": "uint256"
        }
      ],
      "name": "tokenOfOwnerByIndex",
      "outputs": [
        {
          "internalType": "uint256",
          "name": "",
          "type": "uint256"
        }
      ],
      "stateMutability": "view",
      "type": "function"
    }
  ],
  "bytecode": "0x60806040523480156200001157600080fd5b50620000437f01ffc9a7a5cef8baa21ed3c5c0d7e23accb804b619e9333b597f47a0d84076e26200004960201b60201c565b620001a3565b63ffffffff60e01b817bffffffffffffffffffffffffffffffffffffffffffffffffffffffff191603620000b4576040517f08c379a0000000000000000000000000000000000000000000000000000000008152600401620000ab9062000181565b60405180910390fd5b6001600080837bffffffffffffffffffffffffffffffffffffffffffffffffffffffff19167bffffffffffffffffffffffffffffffffffffffffffffffffffffffff1916815260200190815260200160002060006101000a81548160ff02191690831515021790555050565b600082825260208201905092915050565b7f496e76616c696420696e74657266616365204944000000000000000000000000600082015250565b60006200016960148362000120565b9150620001768262000131565b602082019050919050565b600060208201905081810360008301526200019c816200015a565b9050919050565b61136480620001b36000396000f3fe60806040526004361061007b5760003560e01c80632f745c591161004e5780632f745c591461012d5780634f6ccce71461016a5780636352211e146101a757806370a08231146101e45761007b565b806301ffc9a714610080578063095ea7b3146100bd57806318160ddd146100e657806323b872dd14610111575b600080fd5b34801561008c57600080fd5b506100a760048036038101906100a29190610bbb565b610221565b6040516100b49190610c03565b60405180910390f35b3480156100c957600080fd5b506100e460048036038101906100df9190610cb2565b610288565b005b3480156100f257600080fd5b506100fb610423565b6040516101089190610d01565b60405180910390f35b61012b60048036038101906101269190610d1c565b610430565b005b34801561013957600080fd5b50610154600480360381019061014f9190610cb2565b610489565b6040516101619190610d01565b60405180910390f35b34801561017657600080fd5b50610191600480360381019061018c9190610d6f565b610571565b60405161019e9190610d01565b60405180910390f35b3480156101b357600080fd5b506101ce60048036038101906101c99190610d6f565b6105e2565b6040516101db9190610dab565b60405180910390f35b3480156101f057600080fd5b5061020b60048036038101906102069190610dc6565b610693565b6040516102189190610d01565b60405180910390f35b6000806000837bffffffffffffffffffffffffffffffffffffffffffffffffffffffff19167bffffffffffffffffffffffffffffffffffffffffffffffffffffffff1916815260200190815260200160002060009054906101000a900460ff169050919050565b6000610293826105e2565b90508073ffffffffffffffffffffffffffffffffffffffff168373ffffffffffffffffffffffffffffffffffffffff1603610303576040517f08c379a00000000000000000000000000000000000000000000000000000000081526004016102fa90610e76565b60405180910390fd5b8073ffffffffffffffffffffffffffffffffffffffff163373ffffffffffffffffffffffffffffffffffffffff1614610371576040517f08c379a000000000000000000000000000000000000000000000000000000000815260040161036890610ee2565b60405180910390fd5b826003600084815260200190815260200160002060006101000a81548173ffffffffffffffffffffffffffffffffffffffff021916908373ffffffffffffffffffffffffffffffffffffffff160217905550818373ffffffffffffffffffffffffffffffffffffffff163373ffffffffffffffffffffffffffffffffffffffff167f8c5be1e5ebec7d5bd14f71427d1e84f3dd0314c0f7b2291e5b200ac8c7c3b92560405160405180910390a4505050565b6000600480549050905090565b61043a338261074a565b610479576040517f08c379a000000000000000000000000000000000000000000000000000000000815260040161047090610f74565b60405180910390fd5b610484838383610822565b505050565b60008073ffffffffffffffffffffffffffffffffffffffff168373ffffffffffffffffffffffffffffffffffffffff16036104f9576040517f08c379a00000000000000000000000000000000000000000000000000000000081526004016104f090610fe0565b60405180910390fd5b61050283610693565b821061050d57600080fd5b600660008473ffffffffffffffffffffffffffffffffffffffff1673ffffffffffffffffffffffffffffffffffffffff168152602001908152602001600020828154811061055e5761055d611000565b5b9060005260206000200154905092915050565b600061057b610423565b82106105bc576040517f08c379a00000000000000000000000000000000000000000000000000000000081526004016105b39061107b565b60405180910390fd5b600482815481106105d0576105cf611000565b5b90600052602060002001549050919050565b6000806001600084815260200190815260200160002060009054906101000a900473ffffffffffffffffffffffffffffffffffffffff169050600073ffffffffffffffffffffffffffffffffffffffff168173ffffffffffffffffffffffffffffffffffffffff160361068a576040517f08c379a00000000000000000000000000000000000000000000000000000000081526004016106819061110d565b60405180910390fd5b80915050919050565b60008073ffffffffffffffffffffffffffffffffffffffff168273ffffffffffffffffffffffffffffffffffffffff1603610703576040517f08c379a00000000000000000000000000000000000000000000000000000000081526004016106fa90611179565b60405180910390fd5b600260008373ffffffffffffffffffffffffffffffffffffffff1673ffffffffffffffffffffffffffffffffffffffff168152602001908152602001600020549050919050565b600061075582610a67565b610794576040517f08c379a000000000000000000000000000000000000000000000000000000000815260040161078b906111e5565b60405180910390fd5b600061079f836105e2565b90508373ffffffffffffffffffffffffffffffffffffffff168173ffffffffffffffffffffffffffffffffffffffff16148061080e57508373ffffffffffffffffffffffffffffffffffffffff166107f684610ad9565b73ffffffffffffffffffffffffffffffffffffffff16145b61081757600080fd5b600191505092915050565b61082b816105e2565b73ffffffffffffffffffffffffffffffffffffffff168373ffffffffffffffffffffffffffffffffffffffff1614610898576040517f08c379a000000000000000000000000000000000000000000000000000000000815260040161088f90611277565b60405180910390fd5b600073ffffffffffffffffffffffffffffffffffffffff168273ffffffffffffffffffffffffffffffffffffffff1603610907576040517f08c379a00000000000000000000000000000000000000000000000000000000081526004016108fe90610fe0565b60405180910390fd5b6001600260008573ffffffffffffffffffffffffffffffffffffffff1673ffffffffffffffffffffffffffffffffffffffff168152602001908152602001600020600082825461095791906112c6565b925050819055506001600260008473ffffffffffffffffffffffffffffffffffffffff1673ffffffffffffffffffffffffffffffffffffffff16815260200190815260200160002060008282546109ae91906112fa565b92505081905550816001600083815260200190815260200160002060006101000a81548173ffffffffffffffffffffffffffffffffffffffff021916908373ffffffffffffffffffffffffffffffffffffffff160217905550808273ffffffffffffffffffffffffffffffffffffffff168473ffffffffffffffffffffffffffffffffffffffff167fddf252ad1be2c89b69c2b068fc378daa952ba7f163c4a11628f55a4df523b3ef60405160405180910390a4505050565b6000806001600084815260200190815260200160002060009054906101000a900473ffffffffffffffffffffffffffffffffffffffff169050600073ffffffffffffffffffffffffffffffffffffffff168173ffffffffffffffffffffffffffffffffffffffff161415915050919050565b6000610ae482610a67565b610b23576040517f08c379a0000000000000000000000000000000000000000000000000000000008152600401610b1a906111e5565b60405180910390fd5b6003600083815260200190815260200160002060009054906101000a900473ffffffffffffffffffffffffffffffffffffffff169050919050565b600080fd5b60007fffffffff0000000000000000000000000000000000000000000000000000000082169050919050565b610b9881610b63565b8114610ba357600080fd5b50565b600081359050610bb581610b8f565b92915050565b600060208284031215610bd157610bd0610b5e565b5b6000610bdf84828501610ba6565b91505092915050565b60008115159050919050565b610bfd81610be8565b82525050565b6000602082019050610c186000830184610bf4565b92915050565b600073ffffffffffffffffffffffffffffffffffffffff82169050919050565b6000610c4982610c1e565b9050919050565b610c5981610c3e565b8114610c6457600080fd5b50565b600081359050610c7681610c50565b92915050565b6000819050919050565b610c8f81610c7c565b8114610c9a57600080fd5b50565b600081359050610cac81610c86565b92915050565b60008060408385031215610cc957610cc8610b5e565b5b6000610cd785828601610c67565b9250506020610ce885828601610c9d565b9150509250929050565b610cfb81610c7c565b82525050565b6000602082019050610d166000830184610cf2565b92915050565b600080600060608486031215610d3557610d34610b5e565b5b6000610d4386828701610c67565b9350506020610d5486828701610c67565b9250506040610d6586828701610c9d565b9150509250925092565b600060208284031215610d8557610d84610b5e565b5b6000610d9384828501610c9d565b91505092915050565b610da581610c3e565b82525050565b6000602082019050610dc06000830184610d9c565b92915050565b600060208284031215610ddc57610ddb610b5e565b5b6000610dea84828501610c67565b91505092915050565b600082825260208201905092915050565b7f43616e6e6f7420617070726f7665206f776e6572206164647265737320666f7260008201527f2073616d6520746f6b656e000000000000000000000000000000000000000000602082015250565b6000610e60602b83610df3565b9150610e6b82610e04565b604082019050919050565b60006020820190508181036000830152610e8f81610e53565b9050919050565b7f4f6e6c79206f776e6572732063616e20617070726f7665000000000000000000600082015250565b6000610ecc601783610df3565b9150610ed782610e96565b602082019050919050565b60006020820190508181036000830152610efb81610ebf565b9050919050565b7f4f6e6c79206f776e6572206f7220617070726f7665642061646472657373657360008201527f2063616e207472616e7366657220746f6b656e73000000000000000000000000602082015250565b6000610f5e603483610df3565b9150610f6982610f02565b604082019050919050565b60006020820190508181036000830152610f8d81610f51565b9050919050565b7f496e76616c696420616464726573732100000000000000000000000000000000600082015250565b6000610fca601083610df3565b9150610fd582610f94565b602082019050919050565b60006020820190508181036000830152610ff981610fbd565b9050919050565b7f4e487b7100000000000000000000000000000000000000000000000000000000600052603260045260246000fd5b7f496e646578206f7574206f6620626f756e647321000000000000000000000000600082015250565b6000611065601483610df3565b91506110708261102f565b602082019050919050565b6000602082019050818103600083015261109481611058565b9050919050565b7f4572726f72202d20496e76616c6964206f776e6572206164647265737320666f60008201527f756e642100000000000000000000000000000000000000000000000000000000602082015250565b60006110f7602483610df3565b91506111028261109b565b604082019050919050565b60006020820190508181036000830152611126816110ea565b9050919050565b7f4572726f72202d20496e76616c6964206f776e65722061646472657373000000600082015250565b6000611163601d83610df3565b915061116e8261112d565b602082019050919050565b6000602082019050818103600083015261119281611156565b9050919050565b7f546f6b656e20646f6573206e6f74206578697374730000000000000000000000600082015250565b60006111cf601583610df3565b91506111da82611199565b602082019050919050565b600060208201905081810360008301526111fe816111c2565b9050919050565b7f46726f6d206164647265737320646f6573206e6f74206d61746368207468652060008201527f546f6b656e206f776e6572000000000000000000000000000000000000000000602082015250565b6000611261602b83610df3565b915061126c82611205565b604082019050919050565b6000602082019050818103600083015261129081611254565b9050919050565b7f4e487b7100000000000000000000000000000000000000000000000000000000600052601160045260246000fd5b60006112d182610c7c565b91506112dc83610c7c565b92508282039050818111156112f4576112f3611297565b5b92915050565b600061130582610c7c565b915061131083610c7c565b925082820190508082111561132857611327611297565b5b9291505056fea2646970667358221220031fb61a067bf1c96fc581a224e0b703523c1cb2ed55523fb35da6e425416ef164736f6c63430008110033",
  "immutableReferences": {},
  "source": "// SPDX-License-Identifier:MIT\r\n\r\npragma solidity ^0.8.0;\r\n\r\nimport './ERC721.sol';\r\n\r\ncontract ERC721Enumerable is ERC721{\r\n\r\n    uint256[] private allTokens;\r\n\r\n    // mapping from tokenId to position in allTokens array\r\n    mapping (uint256 => uint256) private _allTokensIndex;\r\n\r\n    // mapping from owner to all owned tokens\r\n    mapping(address => uint256[]) private _ownedTokens;\r\n\r\n    // mapping from token ID index to owner tokens list\r\n    mapping(uint256 => uint256) private _ownedTokensIndex;\r\n\r\n    /// @notice Count NFTs tracked by this contract\r\n    /// @return A count of valid NFTs tracked by this contract, where each one of\r\n    ///  them has an assigned and queryable owner not equal to the zero address\r\n    function totalSupply() public view returns (uint256) {\r\n        return allTokens.length;\r\n    }\r\n\r\n    function tokenByIndex(uint256 _index) external view returns (uint256){\r\n        require(_index < totalSupply(), \"Index out of bounds!\");\r\n        return allTokens[_index];\r\n    }\r\n\r\n    function tokenOfOwnerByIndex(address _owner, uint256 _index) external view returns (uint256) {\r\n        require(_owner != address(0),\"Invalid address!\");\r\n        require(_index < balanceOf(_owner));\r\n        return _ownedTokens[_owner][_index];\r\n    }\r\n\r\n    function _mint(address _to, uint256 _tokenId) internal override(ERC721) {\r\n        super._mint(_to, _tokenId);\r\n        addTokensToAllTokenEnumeration(_tokenId);\r\n        addTokenstoOwnerEnumeration(_to, _tokenId);\r\n    }\r\n\r\n    function addTokensToAllTokenEnumeration(uint256 _tokenId) private {\r\n\r\n        // add token index to the _allTokensIndex mapping\r\n        _allTokensIndex[_tokenId] = allTokens.length;\r\n\r\n        // Add token to the allTokens list\r\n        allTokens.push(_tokenId);\r\n    }\r\n\r\n    function addTokenstoOwnerEnumeration(address _to,uint256 _tokenId) private {\r\n        \r\n        _ownedTokensIndex[_tokenId] = _ownedTokens[_to].length;\r\n        \r\n        _ownedTokens[_to].push(_tokenId);\r\n    }\r\n}",
  "sourcePath": "C:\\Gauri\\Blockchain Projects\\ERC721\\src\\contracts\\ERC721Enumerable.sol",
  "compiler": {
    "name": "solc",
    "version": "0.8.17+commit.8df45f5f.Emscripten.clang"
  },
  "schemaVersion": "3.4.9",
  "updatedAt": "2022-12-04T06:34:48.024Z",
  "devdoc": {
    "kind": "dev",
    "methods": {
      "supportsInterface(bytes4)": {
        "details": "Interface identification is specified in ERC-165. This function  uses less than 30,000 gas.",
        "params": {
          "interfaceID": "The interface identifier, as specified in ERC-165"
        },
        "returns": {
          "_0": "`true` if the contract implements `interfaceID` and  `interfaceID` is not 0xffffffff, `false` otherwise"
        }
      },
      "totalSupply()": {
        "returns": {
          "_0": "A count of valid NFTs tracked by this contract, where each one of  them has an assigned and queryable owner not equal to the zero address"
        }
      }
    },
    "version": 1
  },
  "userdoc": {
    "kind": "user",
    "methods": {
      "supportsInterface(bytes4)": {
        "notice": "Query if a contract implements an interface"
      },
      "totalSupply()": {
        "notice": "Count NFTs tracked by this contract"
      }
    },
    "version": 1
  }
}