{
  "contractName": "KryptoBirdz",
  "abi": [
    {
      "inputs": [],
      "stateMutability": "nonpayable",
      "type": "constructor"
    },
    {
      "anonymous": false,
      "inputs": [
        {
          "indexed": true,
          "internalType": "address",
          "name": "_owner",
          "type": "address"
        },
        {
          "indexed": true,
          "internalType": "address",
          "name": "_approved",
          "type": "address"
        },
        {
          "indexed": true,
          "internalType": "uint256",
          "name": "_tokenId",
          "type": "uint256"
        }
      ],
      "name": "Approval",
      "type": "event"
    },
    {
      "anonymous": false,
      "inputs": [
        {
          "indexed": true,
          "internalType": "address",
          "name": "_owner",
          "type": "address"
        },
        {
          "indexed": true,
          "internalType": "address",
          "name": "_operator",
          "type": "address"
        },
        {
          "indexed": false,
          "internalType": "bool",
          "name": "_approved",
          "type": "bool"
        }
      ],
      "name": "ApprovalForAll",
      "type": "event"
    },
    {
      "anonymous": false,
      "inputs": [
        {
          "indexed": true,
          "internalType": "address",
          "name": "_from",
          "type": "address"
        },
        {
          "indexed": true,
          "internalType": "address",
          "name": "_to",
          "type": "address"
        },
        {
          "indexed": true,
          "internalType": "uint256",
          "name": "_tokenId",
          "type": "uint256"
        }
      ],
      "name": "Transfer",
      "type": "event"
    },
    {
      "inputs": [
        {
          "internalType": "address",
          "name": "_to",
          "type": "address"
        },
        {
          "internalType": "uint256",
          "name": "_tokenId",
          "type": "uint256"
        }
      ],
      "name": "approve",
      "outputs": [],
      "stateMutability": "nonpayable",
      "type": "function"
    },
    {
      "inputs": [
        {
          "internalType": "address",
          "name": "_owner",
          "type": "address"
        }
      ],
      "name": "balanceOf",
      "outputs": [
        {
          "internalType": "uint256",
          "name": "",
          "type": "uint256"
        }
      ],
      "stateMutability": "view",
      "type": "function",
      "constant": true
    },
    {
      "inputs": [],
      "name": "getName",
      "outputs": [
        {
          "internalType": "string",
          "name": "",
          "type": "string"
        }
      ],
      "stateMutability": "view",
      "type": "function",
      "constant": true
    },
    {
      "inputs": [],
      "name": "getSymbol",
      "outputs": [
        {
          "internalType": "string",
          "name": "",
          "type": "string"
        }
      ],
      "stateMutability": "view",
      "type": "function",
      "constant": true
    },
    {
      "inputs": [
        {
          "internalType": "uint256",
          "name": "",
          "type": "uint256"
        }
      ],
      "name": "kryptoBirdz",
      "outputs": [
        {
          "internalType": "string",
          "name": "",
          "type": "string"
        }
      ],
      "stateMutability": "view",
      "type": "function",
      "constant": true
    },
    {
      "inputs": [
        {
          "internalType": "uint256",
          "name": "_tokenId",
          "type": "uint256"
        }
      ],
      "name": "ownerOf",
      "outputs": [
        {
          "internalType": "address",
          "name": "",
          "type": "address"
        }
      ],
      "stateMutability": "view",
      "type": "function",
      "constant": true
    },
    {
      "inputs": [
        {
          "internalType": "bytes4",
          "name": "interfaceID",
          "type": "bytes4"
        }
      ],
      "name": "supportsInterface",
      "outputs": [
        {
          "internalType": "bool",
          "name": "",
          "type": "bool"
        }
      ],
      "stateMutability": "view",
      "type": "function",
      "constant": true
    },
    {
      "inputs": [
        {
          "internalType": "uint256",
          "name": "_index",
          "type": "uint256"
        }
      ],
      "name": "tokenByIndex",
      "outputs": [
        {
          "internalType": "uint256",
          "name": "",
          "type": "uint256"
        }
      ],
      "stateMutability": "view",
      "type": "function",
      "constant": true
    },
    {
      "inputs": [
        {
          "internalType": "address",
          "name": "_owner",
          "type": "address"
        },
        {
          "internalType": "uint256",
          "name": "_index",
          "type": "uint256"
        }
      ],
      "name": "tokenOfOwnerByIndex",
      "outputs": [
        {
          "internalType": "uint256",
          "name": "",
          "type": "uint256"
        }
      ],
      "stateMutability": "view",
      "type": "function",
      "constant": true
    },
    {
      "inputs": [],
      "name": "totalSupply",
      "outputs": [
        {
          "internalType": "uint256",
          "name": "",
          "type": "uint256"
        }
      ],
      "stateMutability": "view",
      "type": "function",
      "constant": true
    },
    {
      "inputs": [
        {
          "internalType": "address",
          "name": "_from",
          "type": "address"
        },
        {
          "internalType": "address",
          "name": "_to",
          "type": "address"
        },
        {
          "internalType": "uint256",
          "name": "_tokenId",
          "type": "uint256"
        }
      ],
      "name": "transferFrom",
      "outputs": [],
      "stateMutability": "payable",
      "type": "function",
      "payable": true
    },
    {
      "inputs": [
        {
          "internalType": "string",
          "name": "_kryptoBird",
          "type": "string"
        }
      ],
      "name": "mint",
      "outputs": [],
      "stateMutability": "nonpayable",
      "type": "function"
    }
  ],
  "bytecode": "0x60806040523480156200001157600080fd5b506040518060400160405280600b81526020017f4b727970746f626972647a0000000000000000000000000000000000000000008152506040518060400160405280600681526020017f4b424952445a00000000000000000000000000000000000000000000000000008152508181816000908162000091919062000431565b508060019081620000a3919062000431565b505050620000d77f01ffc9a7a5cef8baa21ed3c5c0d7e23accb804b619e9333b597f47a0d84076e2620000df60201b60201c565b50506200059b565b63ffffffff60e01b817bffffffffffffffffffffffffffffffffffffffffffffffffffffffff1916036200014a576040517f08c379a0000000000000000000000000000000000000000000000000000000008152600401620001419062000579565b60405180910390fd5b600160026000837bffffffffffffffffffffffffffffffffffffffffffffffffffffffff19167bffffffffffffffffffffffffffffffffffffffffffffffffffffffff1916815260200190815260200160002060006101000a81548160ff02191690831515021790555050565b600081519050919050565b7f4e487b7100000000000000000000000000000000000000000000000000000000600052604160045260246000fd5b7f4e487b7100000000000000000000000000000000000000000000000000000000600052602260045260246000fd5b600060028204905060018216806200023957607f821691505b6020821081036200024f576200024e620001f1565b5b50919050565b60008190508160005260206000209050919050565b60006020601f8301049050919050565b600082821b905092915050565b600060088302620002b97fffffffffffffffffffffffffffffffffffffffffffffffffffffffffffffffff826200027a565b620002c586836200027a565b95508019841693508086168417925050509392505050565b6000819050919050565b6000819050919050565b6000620003126200030c6200030684620002dd565b620002e7565b620002dd565b9050919050565b6000819050919050565b6200032e83620002f1565b620003466200033d8262000319565b84845462000287565b825550505050565b600090565b6200035d6200034e565b6200036a81848462000323565b505050565b5b8181101562000392576200038660008262000353565b60018101905062000370565b5050565b601f821115620003e157620003ab8162000255565b620003b6846200026a565b81016020851015620003c6578190505b620003de620003d5856200026a565b8301826200036f565b50505b505050565b600082821c905092915050565b60006200040660001984600802620003e6565b1980831691505092915050565b6000620004218383620003f3565b9150826002028217905092915050565b6200043c82620001b7565b67ffffffffffffffff811115620004585762000457620001c2565b5b62000464825462000220565b6200047182828562000396565b600060209050601f831160018114620004a9576000841562000494578287015190505b620004a0858262000413565b86555062000510565b601f198416620004b98662000255565b60005b82811015620004e357848901518255600182019150602085019450602081019050620004bc565b86831015620005035784890151620004ff601f891682620003f3565b8355505b6001600288020188555050505b505050505050565b600082825260208201905092915050565b7f496e76616c696420696e74657266616365204944000000000000000000000000600082015250565b60006200056160148362000518565b91506200056e8262000529565b602082019050919050565b60006020820190508181036000830152620005948162000552565b9050919050565b6120de80620005ab6000396000f3fe6080604052600436106100a75760003560e01c80632f745c59116100645780632f745c59146101af5780634f6ccce7146101ec5780636352211e1461022957806370a082311461026657806393ab6e56146102a3578063d85d3d27146102e0576100a7565b806301ffc9a7146100ac578063095ea7b3146100e9578063150704011461011257806317d7de7c1461013d57806318160ddd1461016857806323b872dd14610193575b600080fd5b3480156100b857600080fd5b506100d360048036038101906100ce91906112a1565b610309565b6040516100e091906112e9565b60405180910390f35b3480156100f557600080fd5b50610110600480360381019061010b9190611398565b610371565b005b34801561011e57600080fd5b5061012761050c565b6040516101349190611468565b60405180910390f35b34801561014957600080fd5b5061015261059e565b60405161015f9190611468565b60405180910390f35b34801561017457600080fd5b5061017d610630565b60405161018a9190611499565b60405180910390f35b6101ad60048036038101906101a891906114b4565b61063d565b005b3480156101bb57600080fd5b506101d660048036038101906101d19190611398565b610696565b6040516101e39190611499565b60405180910390f35b3480156101f857600080fd5b50610213600480360381019061020e9190611507565b61077e565b6040516102209190611499565b60405180910390f35b34801561023557600080fd5b50610250600480360381019061024b9190611507565b6107ef565b60405161025d9190611543565b60405180910390f35b34801561027257600080fd5b5061028d6004803603810190610288919061155e565b6108a0565b60405161029a9190611499565b60405180910390f35b3480156102af57600080fd5b506102ca60048036038101906102c59190611507565b610957565b6040516102d79190611468565b60405180910390f35b3480156102ec57600080fd5b50610307600480360381019061030291906116c0565b610a03565b005b600060026000837bffffffffffffffffffffffffffffffffffffffffffffffffffffffff19167bffffffffffffffffffffffffffffffffffffffffffffffffffffffff1916815260200190815260200160002060009054906101000a900460ff169050919050565b600061037c826107ef565b90508073ffffffffffffffffffffffffffffffffffffffff168373ffffffffffffffffffffffffffffffffffffffff16036103ec576040517f08c379a00000000000000000000000000000000000000000000000000000000081526004016103e39061177b565b60405180910390fd5b8073ffffffffffffffffffffffffffffffffffffffff163373ffffffffffffffffffffffffffffffffffffffff161461045a576040517f08c379a0000000000000000000000000000000000000000000000000000000008152600401610451906117e7565b60405180910390fd5b826005600084815260200190815260200160002060006101000a81548173ffffffffffffffffffffffffffffffffffffffff021916908373ffffffffffffffffffffffffffffffffffffffff160217905550818373ffffffffffffffffffffffffffffffffffffffff163373ffffffffffffffffffffffffffffffffffffffff167f8c5be1e5ebec7d5bd14f71427d1e84f3dd0314c0f7b2291e5b200ac8c7c3b92560405160405180910390a4505050565b60606001805461051b90611836565b80601f016020809104026020016040519081016040528092919081815260200182805461054790611836565b80156105945780601f1061056957610100808354040283529160200191610594565b820191906000526020600020905b81548152906001019060200180831161057757829003601f168201915b5050505050905090565b6060600080546105ad90611836565b80601f01602080910402602001604051908101604052809291908181526020018280546105d990611836565b80156106265780601f106105fb57610100808354040283529160200191610626565b820191906000526020600020905b81548152906001019060200180831161060957829003601f168201915b5050505050905090565b6000600680549050905090565b6106473382610aff565b610686576040517f08c379a000000000000000000000000000000000000000000000000000000000815260040161067d906118d9565b60405180910390fd5b610691838383610bd7565b505050565b60008073ffffffffffffffffffffffffffffffffffffffff168373ffffffffffffffffffffffffffffffffffffffff1603610706576040517f08c379a00000000000000000000000000000000000000000000000000000000081526004016106fd90611945565b60405180910390fd5b61070f836108a0565b821061071a57600080fd5b600860008473ffffffffffffffffffffffffffffffffffffffff1673ffffffffffffffffffffffffffffffffffffffff168152602001908152602001600020828154811061076b5761076a611965565b5b9060005260206000200154905092915050565b6000610788610630565b82106107c9576040517f08c379a00000000000000000000000000000000000000000000000000000000081526004016107c0906119e0565b60405180910390fd5b600682815481106107dd576107dc611965565b5b90600052602060002001549050919050565b6000806003600084815260200190815260200160002060009054906101000a900473ffffffffffffffffffffffffffffffffffffffff169050600073ffffffffffffffffffffffffffffffffffffffff168173ffffffffffffffffffffffffffffffffffffffff1603610897576040517f08c379a000000000000000000000000000000000000000000000000000000000815260040161088e90611a72565b60405180910390fd5b80915050919050565b60008073ffffffffffffffffffffffffffffffffffffffff168273ffffffffffffffffffffffffffffffffffffffff1603610910576040517f08c379a000000000000000000000000000000000000000000000000000000000815260040161090790611ade565b60405180910390fd5b600460008373ffffffffffffffffffffffffffffffffffffffff1673ffffffffffffffffffffffffffffffffffffffff168152602001908152602001600020549050919050565b600a818154811061096757600080fd5b90600052602060002001600091509050805461098290611836565b80601f01602080910402602001604051908101604052809291908181526020018280546109ae90611836565b80156109fb5780601f106109d0576101008083540402835291602001916109fb565b820191906000526020600020905b8154815290600101906020018083116109de57829003601f168201915b505050505081565b600b81604051610a139190611b3a565b908152602001604051809103902060009054906101000a900460ff1615610a6f576040517f08c379a0000000000000000000000000000000000000000000000000000000008152600401610a6690611b9d565b60405180910390fd5b600a81908060018154018082558091505060019003906000526020600020016000909190919091509081610aa39190611d69565b5060006001600a80549050610ab89190611e6a565b9050610ac43382610e1c565b6001600b83604051610ad69190611b3a565b908152602001604051809103902060006101000a81548160ff0219169083151502179055505050565b6000610b0a82610e3d565b610b49576040517f08c379a0000000000000000000000000000000000000000000000000000000008152600401610b4090611eea565b60405180910390fd5b6000610b54836107ef565b90508373ffffffffffffffffffffffffffffffffffffffff168173ffffffffffffffffffffffffffffffffffffffff161480610bc357508373ffffffffffffffffffffffffffffffffffffffff16610bab84610eaf565b73ffffffffffffffffffffffffffffffffffffffff16145b610bcc57600080fd5b600191505092915050565b610be0816107ef565b73ffffffffffffffffffffffffffffffffffffffff168373ffffffffffffffffffffffffffffffffffffffff1614610c4d576040517f08c379a0000000000000000000000000000000000000000000000000000000008152600401610c4490611f7c565b60405180910390fd5b600073ffffffffffffffffffffffffffffffffffffffff168273ffffffffffffffffffffffffffffffffffffffff1603610cbc576040517f08c379a0000000000000000000000000000000000000000000000000000000008152600401610cb390611945565b60405180910390fd5b6001600460008573ffffffffffffffffffffffffffffffffffffffff1673ffffffffffffffffffffffffffffffffffffffff1681526020019081526020016000206000828254610d0c9190611e6a565b925050819055506001600460008473ffffffffffffffffffffffffffffffffffffffff1673ffffffffffffffffffffffffffffffffffffffff1681526020019081526020016000206000828254610d639190611f9c565b92505081905550816003600083815260200190815260200160002060006101000a81548173ffffffffffffffffffffffffffffffffffffffff021916908373ffffffffffffffffffffffffffffffffffffffff160217905550808273ffffffffffffffffffffffffffffffffffffffff168473ffffffffffffffffffffffffffffffffffffffff167fddf252ad1be2c89b69c2b068fc378daa952ba7f163c4a11628f55a4df523b3ef60405160405180910390a4505050565b610e268282610f34565b610e2f81611128565b610e398282611171565b5050565b6000806003600084815260200190815260200160002060009054906101000a900473ffffffffffffffffffffffffffffffffffffffff169050600073ffffffffffffffffffffffffffffffffffffffff168173ffffffffffffffffffffffffffffffffffffffff161415915050919050565b6000610eba82610e3d565b610ef9576040517f08c379a0000000000000000000000000000000000000000000000000000000008152600401610ef090611eea565b60405180910390fd5b6005600083815260200190815260200160002060009054906101000a900473ffffffffffffffffffffffffffffffffffffffff169050919050565b610f3d81610e3d565b15610f7d576040517f08c379a0000000000000000000000000000000000000000000000000000000008152600401610f749061201c565b60405180910390fd5b600073ffffffffffffffffffffffffffffffffffffffff166003600083815260200190815260200160002060009054906101000a900473ffffffffffffffffffffffffffffffffffffffff1673ffffffffffffffffffffffffffffffffffffffff161461101f576040517f08c379a000000000000000000000000000000000000000000000000000000000815260040161101690612088565b60405180910390fd5b816003600083815260200190815260200160002060006101000a81548173ffffffffffffffffffffffffffffffffffffffff021916908373ffffffffffffffffffffffffffffffffffffffff1602179055506001600460008473ffffffffffffffffffffffffffffffffffffffff1673ffffffffffffffffffffffffffffffffffffffff16815260200190815260200160002060008282546110c19190611f9c565b92505081905550808273ffffffffffffffffffffffffffffffffffffffff16600073ffffffffffffffffffffffffffffffffffffffff167fddf252ad1be2c89b69c2b068fc378daa952ba7f163c4a11628f55a4df523b3ef60405160405180910390a45050565b6006805490506007600083815260200190815260200160002081905550600681908060018154018082558091505060019003906000526020600020016000909190919091505550565b600860008373ffffffffffffffffffffffffffffffffffffffff1673ffffffffffffffffffffffffffffffffffffffff168152602001908152602001600020805490506009600083815260200190815260200160002081905550600860008373ffffffffffffffffffffffffffffffffffffffff1673ffffffffffffffffffffffffffffffffffffffff1681526020019081526020016000208190806001815401808255809150506001900390600052602060002001600090919091909150555050565b6000604051905090565b600080fd5b600080fd5b60007fffffffff0000000000000000000000000000000000000000000000000000000082169050919050565b61127e81611249565b811461128957600080fd5b50565b60008135905061129b81611275565b92915050565b6000602082840312156112b7576112b661123f565b5b60006112c58482850161128c565b91505092915050565b60008115159050919050565b6112e3816112ce565b82525050565b60006020820190506112fe60008301846112da565b92915050565b600073ffffffffffffffffffffffffffffffffffffffff82169050919050565b600061132f82611304565b9050919050565b61133f81611324565b811461134a57600080fd5b50565b60008135905061135c81611336565b92915050565b6000819050919050565b61137581611362565b811461138057600080fd5b50565b6000813590506113928161136c565b92915050565b600080604083850312156113af576113ae61123f565b5b60006113bd8582860161134d565b92505060206113ce85828601611383565b9150509250929050565b600081519050919050565b600082825260208201905092915050565b60005b838110156114125780820151818401526020810190506113f7565b60008484015250505050565b6000601f19601f8301169050919050565b600061143a826113d8565b61144481856113e3565b93506114548185602086016113f4565b61145d8161141e565b840191505092915050565b60006020820190508181036000830152611482818461142f565b905092915050565b61149381611362565b82525050565b60006020820190506114ae600083018461148a565b92915050565b6000806000606084860312156114cd576114cc61123f565b5b60006114db8682870161134d565b93505060206114ec8682870161134d565b92505060406114fd86828701611383565b9150509250925092565b60006020828403121561151d5761151c61123f565b5b600061152b84828501611383565b91505092915050565b61153d81611324565b82525050565b60006020820190506115586000830184611534565b92915050565b6000602082840312156115745761157361123f565b5b60006115828482850161134d565b91505092915050565b600080fd5b600080fd5b7f4e487b7100000000000000000000000000000000000000000000000000000000600052604160045260246000fd5b6115cd8261141e565b810181811067ffffffffffffffff821117156115ec576115eb611595565b5b80604052505050565b60006115ff611235565b905061160b82826115c4565b919050565b600067ffffffffffffffff82111561162b5761162a611595565b5b6116348261141e565b9050602081019050919050565b82818337600083830152505050565b600061166361165e84611610565b6115f5565b90508281526020810184848401111561167f5761167e611590565b5b61168a848285611641565b509392505050565b600082601f8301126116a7576116a661158b565b5b81356116b7848260208601611650565b91505092915050565b6000602082840312156116d6576116d561123f565b5b600082013567ffffffffffffffff8111156116f4576116f3611244565b5b61170084828501611692565b91505092915050565b7f43616e6e6f7420617070726f7665206f776e6572206164647265737320666f7260008201527f2073616d6520746f6b656e000000000000000000000000000000000000000000602082015250565b6000611765602b836113e3565b915061177082611709565b604082019050919050565b6000602082019050818103600083015261179481611758565b9050919050565b7f4f6e6c79206f776e6572732063616e20617070726f7665000000000000000000600082015250565b60006117d16017836113e3565b91506117dc8261179b565b602082019050919050565b60006020820190508181036000830152611800816117c4565b9050919050565b7f4e487b7100000000000000000000000000000000000000000000000000000000600052602260045260246000fd5b6000600282049050600182168061184e57607f821691505b60208210810361186157611860611807565b5b50919050565b7f4f6e6c79206f776e6572206f7220617070726f7665642061646472657373657360008201527f2063616e207472616e7366657220746f6b656e73000000000000000000000000602082015250565b60006118c36034836113e3565b91506118ce82611867565b604082019050919050565b600060208201905081810360008301526118f2816118b6565b9050919050565b7f496e76616c696420616464726573732100000000000000000000000000000000600082015250565b600061192f6010836113e3565b915061193a826118f9565b602082019050919050565b6000602082019050818103600083015261195e81611922565b9050919050565b7f4e487b7100000000000000000000000000000000000000000000000000000000600052603260045260246000fd5b7f496e646578206f7574206f6620626f756e647321000000000000000000000000600082015250565b60006119ca6014836113e3565b91506119d582611994565b602082019050919050565b600060208201905081810360008301526119f9816119bd565b9050919050565b7f4572726f72202d20496e76616c6964206f776e6572206164647265737320666f60008201527f756e642100000000000000000000000000000000000000000000000000000000602082015250565b6000611a5c6024836113e3565b9150611a6782611a00565b604082019050919050565b60006020820190508181036000830152611a8b81611a4f565b9050919050565b7f4572726f72202d20496e76616c6964206f776e65722061646472657373000000600082015250565b6000611ac8601d836113e3565b9150611ad382611a92565b602082019050919050565b60006020820190508181036000830152611af781611abb565b9050919050565b600081905092915050565b6000611b14826113d8565b611b1e8185611afe565b9350611b2e8185602086016113f4565b80840191505092915050565b6000611b468284611b09565b915081905092915050565b7f4b727970746f4269726420616c72656164792065786973747300000000000000600082015250565b6000611b876019836113e3565b9150611b9282611b51565b602082019050919050565b60006020820190508181036000830152611bb681611b7a565b9050919050565b60008190508160005260206000209050919050565b60006020601f8301049050919050565b600082821b905092915050565b600060088302611c1f7fffffffffffffffffffffffffffffffffffffffffffffffffffffffffffffffff82611be2565b611c298683611be2565b95508019841693508086168417925050509392505050565b6000819050919050565b6000611c66611c61611c5c84611362565b611c41565b611362565b9050919050565b6000819050919050565b611c8083611c4b565b611c94611c8c82611c6d565b848454611bef565b825550505050565b600090565b611ca9611c9c565b611cb4818484611c77565b505050565b5b81811015611cd857611ccd600082611ca1565b600181019050611cba565b5050565b601f821115611d1d57611cee81611bbd565b611cf784611bd2565b81016020851015611d06578190505b611d1a611d1285611bd2565b830182611cb9565b50505b505050565b600082821c905092915050565b6000611d4060001984600802611d22565b1980831691505092915050565b6000611d598383611d2f565b9150826002028217905092915050565b611d72826113d8565b67ffffffffffffffff811115611d8b57611d8a611595565b5b611d958254611836565b611da0828285611cdc565b600060209050601f831160018114611dd35760008415611dc1578287015190505b611dcb8582611d4d565b865550611e33565b601f198416611de186611bbd565b60005b82811015611e0957848901518255600182019150602085019450602081019050611de4565b86831015611e265784890151611e22601f891682611d2f565b8355505b6001600288020188555050505b505050505050565b7f4e487b7100000000000000000000000000000000000000000000000000000000600052601160045260246000fd5b6000611e7582611362565b9150611e8083611362565b9250828203905081811115611e9857611e97611e3b565b5b92915050565b7f546f6b656e20646f6573206e6f74206578697374730000000000000000000000600082015250565b6000611ed46015836113e3565b9150611edf82611e9e565b602082019050919050565b60006020820190508181036000830152611f0381611ec7565b9050919050565b7f46726f6d206164647265737320646f6573206e6f74206d61746368207468652060008201527f546f6b656e206f776e6572000000000000000000000000000000000000000000602082015250565b6000611f66602b836113e3565b9150611f7182611f0a565b604082019050919050565b60006020820190508181036000830152611f9581611f59565b9050919050565b6000611fa782611362565b9150611fb283611362565b9250828201905080821115611fca57611fc9611e3b565b5b92915050565b7f496e76616c6964206164647265737320666f756e642100000000000000000000600082015250565b60006120066016836113e3565b915061201182611fd0565b602082019050919050565b6000602082019050818103600083015261203581611ff9565b9050919050565b7f546f6b656e20616c7265616479206d696e746564210000000000000000000000600082015250565b60006120726015836113e3565b915061207d8261203c565b602082019050919050565b600060208201905081810360008301526120a181612065565b905091905056fea2646970667358221220b2e0a2167d1e96d23e6020028b4790249489de9c22d80cb9d9b2a05e14f60e0764736f6c63430008110033",
  "immutableReferences": {},
  "source": "// SPDX-License-Identifier:MIT\r\n\r\npragma solidity ^0.8.0;\r\n\r\nimport './ERC721Connector.sol';\r\n\r\ncontract KryptoBirdz is ERC721Connector{\r\n\r\n    // to keep track of the kryptobirdz that are minted\r\n    string[] public kryptoBirdz;\r\n\r\n    // to make sure the birdz are unique\r\n    mapping(string => bool) kryptoBirdExists;\r\n    constructor() ERC721Connector('Kryptobirdz','KBIRDZ') {\r\n    }\r\n\r\n    function mint(string memory _kryptoBird) public {\r\n        require(!(kryptoBirdExists[_kryptoBird]), \"KryptoBird already exists\");\r\n        kryptoBirdz.push(_kryptoBird);\r\n        uint id = kryptoBirdz.length - 1;\r\n        _mint(msg.sender, id);\r\n        kryptoBirdExists[_kryptoBird] = true;\r\n    }\r\n}",
  "sourcePath": "C:\\Gauri\\Blockchain Projects\\ERC721\\src\\contracts\\KryptoBirdz.sol",
  "compiler": {
    "name": "solc",
    "version": "0.8.17+commit.8df45f5f.Emscripten.clang"
  },
  "schemaVersion": "3.4.9",
  "updatedAt": "2022-12-04T06:35:05.522Z",
  "networkType": "ethereum",
  "devdoc": {
    "kind": "dev",
    "methods": {
      "supportsInterface(bytes4)": {
        "details": "Interface identification is specified in ERC-165. This function  uses less than 30,000 gas.",
        "params": {
          "interfaceID": "The interface identifier, as specified in ERC-165"
        },
        "returns": {
          "_0": "`true` if the contract implements `interfaceID` and  `interfaceID` is not 0xffffffff, `false` otherwise"
        }
      },
      "totalSupply()": {
        "returns": {
          "_0": "A count of valid NFTs tracked by this contract, where each one of  them has an assigned and queryable owner not equal to the zero address"
        }
      }
    },
    "version": 1
  },
  "userdoc": {
    "kind": "user",
    "methods": {
      "supportsInterface(bytes4)": {
        "notice": "Query if a contract implements an interface"
      },
      "totalSupply()": {
        "notice": "Count NFTs tracked by this contract"
      }
    },
    "version": 1
  }
}