{
  "contractName": "KryptoBirdz",
  "abi": [
    {
      "inputs": [],
      "stateMutability": "nonpayable",
      "type": "constructor"
    },
    {
      "anonymous": false,
      "inputs": [
        {
          "indexed": true,
          "internalType": "address",
          "name": "_owner",
          "type": "address"
        },
        {
          "indexed": true,
          "internalType": "address",
          "name": "_approved",
          "type": "address"
        },
        {
          "indexed": true,
          "internalType": "uint256",
          "name": "_tokenId",
          "type": "uint256"
        }
      ],
      "name": "Approval",
      "type": "event"
    },
    {
      "anonymous": false,
      "inputs": [
        {
          "indexed": true,
          "internalType": "address",
          "name": "_owner",
          "type": "address"
        },
        {
          "indexed": true,
          "internalType": "address",
          "name": "_operator",
          "type": "address"
        },
        {
          "indexed": false,
          "internalType": "bool",
          "name": "_approved",
          "type": "bool"
        }
      ],
      "name": "ApprovalForAll",
      "type": "event"
    },
    {
      "anonymous": false,
      "inputs": [
        {
          "indexed": true,
          "internalType": "address",
          "name": "_from",
          "type": "address"
        },
        {
          "indexed": true,
          "internalType": "address",
          "name": "_to",
          "type": "address"
        },
        {
          "indexed": true,
          "internalType": "uint256",
          "name": "_tokenId",
          "type": "uint256"
        }
      ],
      "name": "Transfer",
      "type": "event"
    },
    {
      "inputs": [
        {
          "internalType": "address",
          "name": "_to",
          "type": "address"
        },
        {
          "internalType": "uint256",
          "name": "_tokenId",
          "type": "uint256"
        }
      ],
      "name": "approve",
      "outputs": [],
      "stateMutability": "nonpayable",
      "type": "function"
    },
    {
      "inputs": [
        {
          "internalType": "address",
          "name": "_owner",
          "type": "address"
        }
      ],
      "name": "balanceOf",
      "outputs": [
        {
          "internalType": "uint256",
          "name": "",
          "type": "uint256"
        }
      ],
      "stateMutability": "view",
      "type": "function",
      "constant": true
    },
    {
      "inputs": [],
      "name": "getName",
      "outputs": [
        {
          "internalType": "string",
          "name": "",
          "type": "string"
        }
      ],
      "stateMutability": "view",
      "type": "function",
      "constant": true
    },
    {
      "inputs": [],
      "name": "getSymbol",
      "outputs": [
        {
          "internalType": "string",
          "name": "",
          "type": "string"
        }
      ],
      "stateMutability": "view",
      "type": "function",
      "constant": true
    },
    {
      "inputs": [
        {
          "internalType": "uint256",
          "name": "",
          "type": "uint256"
        }
      ],
      "name": "kryptoBirdz",
      "outputs": [
        {
          "internalType": "string",
          "name": "",
          "type": "string"
        }
      ],
      "stateMutability": "view",
      "type": "function",
      "constant": true
    },
    {
      "inputs": [
        {
          "internalType": "uint256",
          "name": "_tokenId",
          "type": "uint256"
        }
      ],
      "name": "ownerOf",
      "outputs": [
        {
          "internalType": "address",
          "name": "",
          "type": "address"
        }
      ],
      "stateMutability": "view",
      "type": "function",
      "constant": true
    },
    {
      "inputs": [
        {
          "internalType": "bytes4",
          "name": "interfaceID",
          "type": "bytes4"
        }
      ],
      "name": "supportsInterface",
      "outputs": [
        {
          "internalType": "bool",
          "name": "",
          "type": "bool"
        }
      ],
      "stateMutability": "view",
      "type": "function",
      "constant": true
    },
    {
      "inputs": [
        {
          "internalType": "uint256",
          "name": "_index",
          "type": "uint256"
        }
      ],
      "name": "tokenByIndex",
      "outputs": [
        {
          "internalType": "uint256",
          "name": "",
          "type": "uint256"
        }
      ],
      "stateMutability": "view",
      "type": "function",
      "constant": true
    },
    {
      "inputs": [
        {
          "internalType": "address",
          "name": "_owner",
          "type": "address"
        },
        {
          "internalType": "uint256",
          "name": "_index",
          "type": "uint256"
        }
      ],
      "name": "tokenOfOwnerByIndex",
      "outputs": [
        {
          "internalType": "uint256",
          "name": "",
          "type": "uint256"
        }
      ],
      "stateMutability": "view",
      "type": "function",
      "constant": true
    },
    {
      "inputs": [],
      "name": "totalSupply",
      "outputs": [
        {
          "internalType": "uint256",
          "name": "",
          "type": "uint256"
        }
      ],
      "stateMutability": "view",
      "type": "function",
      "constant": true
    },
    {
      "inputs": [
        {
          "internalType": "address",
          "name": "_from",
          "type": "address"
        },
        {
          "internalType": "address",
          "name": "_to",
          "type": "address"
        },
        {
          "internalType": "uint256",
          "name": "_tokenId",
          "type": "uint256"
        }
      ],
      "name": "transferFrom",
      "outputs": [],
      "stateMutability": "payable",
      "type": "function",
      "payable": true
    },
    {
      "inputs": [
        {
          "internalType": "string",
          "name": "_kryptoBird",
          "type": "string"
        }
      ],
      "name": "mint",
      "outputs": [],
      "stateMutability": "nonpayable",
      "type": "function"
    }
  ],
  "bytecode": "0x60806040523480156200001157600080fd5b506040518060400160405280600b81526020017f4b727970746f626972647a0000000000000000000000000000000000000000008152506040518060400160405280600681526020017f4b424952445a00000000000000000000000000000000000000000000000000008152508181620000b17f01ffc9a7a5cef8baa21ed3c5c0d7e23accb804b619e9333b597f47a0d84076e26200021c60201b60201c565b8160019081620000c291906200056d565b508060029081620000d491906200056d565b50620001287f15070401f13de794d5c4a07fba72029e39560550288924982c9468df974d0e757f17d7de7cabf33b834e714ff77ab86d9d6c1a54372e0dd0137a382d5e9eb9ecda186200021c60201b60201c565b50506200019f7fb642fe57385c30591f4a5d574f2a37c71dee9880879cb99176c8c5e32632dcfa7f6352211e6566aa027e75ac9dbf2423197fbd9b82b9d981a3ab367d355866aa1c7f70a08231b98ef4ca268c9cc3f6b4590e4bfec28280db06bb5d45e689f2a360be18186200021c60201b60201c565b620002147fdb1c3d6df4fa327db0f18f44938ac8bebeca05bd2a9c3eb0f493022181548b887f4f6ccce7c41aed90ec1f1887c4a821594c0f73758d8941d0ccaa2cde813b72987f18160ddd7f15c72528c2f94fd8dfe3c8d5aa26e2c50c7d81f4bc7bee8d4b793218186200021c60201b60201c565b5050620006d7565b63ffffffff60e01b817bffffffffffffffffffffffffffffffffffffffffffffffffffffffff19160362000287576040517f08c379a00000000000000000000000000000000000000000000000000000000081526004016200027e90620006b5565b60405180910390fd5b6001600080837bffffffffffffffffffffffffffffffffffffffffffffffffffffffff19167bffffffffffffffffffffffffffffffffffffffffffffffffffffffff1916815260200190815260200160002060006101000a81548160ff02191690831515021790555050565b600081519050919050565b7f4e487b7100000000000000000000000000000000000000000000000000000000600052604160045260246000fd5b7f4e487b7100000000000000000000000000000000000000000000000000000000600052602260045260246000fd5b600060028204905060018216806200037557607f821691505b6020821081036200038b576200038a6200032d565b5b50919050565b60008190508160005260206000209050919050565b60006020601f8301049050919050565b600082821b905092915050565b600060088302620003f57fffffffffffffffffffffffffffffffffffffffffffffffffffffffffffffffff82620003b6565b620004018683620003b6565b95508019841693508086168417925050509392505050565b6000819050919050565b6000819050919050565b60006200044e62000448620004428462000419565b62000423565b62000419565b9050919050565b6000819050919050565b6200046a836200042d565b62000482620004798262000455565b848454620003c3565b825550505050565b600090565b620004996200048a565b620004a68184846200045f565b505050565b5b81811015620004ce57620004c26000826200048f565b600181019050620004ac565b5050565b601f8211156200051d57620004e78162000391565b620004f284620003a6565b8101602085101562000502578190505b6200051a6200051185620003a6565b830182620004ab565b50505b505050565b600082821c905092915050565b6000620005426000198460080262000522565b1980831691505092915050565b60006200055d83836200052f565b9150826002028217905092915050565b6200057882620002f3565b67ffffffffffffffff811115620005945762000593620002fe565b5b620005a082546200035c565b620005ad828285620004d2565b600060209050601f831160018114620005e55760008415620005d0578287015190505b620005dc85826200054f565b8655506200064c565b601f198416620005f58662000391565b60005b828110156200061f57848901518255600182019150602085019450602081019050620005f8565b868310156200063f57848901516200063b601f8916826200052f565b8355505b6001600288020188555050505b505050505050565b600082825260208201905092915050565b7f496e76616c696420696e74657266616365204944000000000000000000000000600082015250565b60006200069d60148362000654565b9150620006aa8262000665565b602082019050919050565b60006020820190508181036000830152620006d0816200068e565b9050919050565b6120dd80620006e76000396000f3fe6080604052600436106100a75760003560e01c80632f745c59116100645780632f745c59146101af5780634f6ccce7146101ec5780636352211e1461022957806370a082311461026657806393ab6e56146102a3578063d85d3d27146102e0576100a7565b806301ffc9a7146100ac578063095ea7b3146100e9578063150704011461011257806317d7de7c1461013d57806318160ddd1461016857806323b872dd14610193575b600080fd5b3480156100b857600080fd5b506100d360048036038101906100ce91906112a0565b610309565b6040516100e091906112e8565b60405180910390f35b3480156100f557600080fd5b50610110600480360381019061010b9190611397565b610370565b005b34801561011e57600080fd5b5061012761050b565b6040516101349190611467565b60405180910390f35b34801561014957600080fd5b5061015261059d565b60405161015f9190611467565b60405180910390f35b34801561017457600080fd5b5061017d61062f565b60405161018a9190611498565b60405180910390f35b6101ad60048036038101906101a891906114b3565b61063c565b005b3480156101bb57600080fd5b506101d660048036038101906101d19190611397565b610695565b6040516101e39190611498565b60405180910390f35b3480156101f857600080fd5b50610213600480360381019061020e9190611506565b61077d565b6040516102209190611498565b60405180910390f35b34801561023557600080fd5b50610250600480360381019061024b9190611506565b6107ee565b60405161025d9190611542565b60405180910390f35b34801561027257600080fd5b5061028d6004803603810190610288919061155d565b61089f565b60405161029a9190611498565b60405180910390f35b3480156102af57600080fd5b506102ca60048036038101906102c59190611506565b610956565b6040516102d79190611467565b60405180910390f35b3480156102ec57600080fd5b50610307600480360381019061030291906116bf565b610a02565b005b6000806000837bffffffffffffffffffffffffffffffffffffffffffffffffffffffff19167bffffffffffffffffffffffffffffffffffffffffffffffffffffffff1916815260200190815260200160002060009054906101000a900460ff169050919050565b600061037b826107ee565b90508073ffffffffffffffffffffffffffffffffffffffff168373ffffffffffffffffffffffffffffffffffffffff16036103eb576040517f08c379a00000000000000000000000000000000000000000000000000000000081526004016103e29061177a565b60405180910390fd5b8073ffffffffffffffffffffffffffffffffffffffff163373ffffffffffffffffffffffffffffffffffffffff1614610459576040517f08c379a0000000000000000000000000000000000000000000000000000000008152600401610450906117e6565b60405180910390fd5b826005600084815260200190815260200160002060006101000a81548173ffffffffffffffffffffffffffffffffffffffff021916908373ffffffffffffffffffffffffffffffffffffffff160217905550818373ffffffffffffffffffffffffffffffffffffffff163373ffffffffffffffffffffffffffffffffffffffff167f8c5be1e5ebec7d5bd14f71427d1e84f3dd0314c0f7b2291e5b200ac8c7c3b92560405160405180910390a4505050565b60606002805461051a90611835565b80601f016020809104026020016040519081016040528092919081815260200182805461054690611835565b80156105935780601f1061056857610100808354040283529160200191610593565b820191906000526020600020905b81548152906001019060200180831161057657829003601f168201915b5050505050905090565b6060600180546105ac90611835565b80601f01602080910402602001604051908101604052809291908181526020018280546105d890611835565b80156106255780601f106105fa57610100808354040283529160200191610625565b820191906000526020600020905b81548152906001019060200180831161060857829003601f168201915b5050505050905090565b6000600680549050905090565b6106463382610afe565b610685576040517f08c379a000000000000000000000000000000000000000000000000000000000815260040161067c906118d8565b60405180910390fd5b610690838383610bd6565b505050565b60008073ffffffffffffffffffffffffffffffffffffffff168373ffffffffffffffffffffffffffffffffffffffff1603610705576040517f08c379a00000000000000000000000000000000000000000000000000000000081526004016106fc90611944565b60405180910390fd5b61070e8361089f565b821061071957600080fd5b600860008473ffffffffffffffffffffffffffffffffffffffff1673ffffffffffffffffffffffffffffffffffffffff168152602001908152602001600020828154811061076a57610769611964565b5b9060005260206000200154905092915050565b600061078761062f565b82106107c8576040517f08c379a00000000000000000000000000000000000000000000000000000000081526004016107bf906119df565b60405180910390fd5b600682815481106107dc576107db611964565b5b90600052602060002001549050919050565b6000806003600084815260200190815260200160002060009054906101000a900473ffffffffffffffffffffffffffffffffffffffff169050600073ffffffffffffffffffffffffffffffffffffffff168173ffffffffffffffffffffffffffffffffffffffff1603610896576040517f08c379a000000000000000000000000000000000000000000000000000000000815260040161088d90611a71565b60405180910390fd5b80915050919050565b60008073ffffffffffffffffffffffffffffffffffffffff168273ffffffffffffffffffffffffffffffffffffffff160361090f576040517f08c379a000000000000000000000000000000000000000000000000000000000815260040161090690611add565b60405180910390fd5b600460008373ffffffffffffffffffffffffffffffffffffffff1673ffffffffffffffffffffffffffffffffffffffff168152602001908152602001600020549050919050565b600a818154811061096657600080fd5b90600052602060002001600091509050805461098190611835565b80601f01602080910402602001604051908101604052809291908181526020018280546109ad90611835565b80156109fa5780601f106109cf576101008083540402835291602001916109fa565b820191906000526020600020905b8154815290600101906020018083116109dd57829003601f168201915b505050505081565b600b81604051610a129190611b39565b908152602001604051809103902060009054906101000a900460ff1615610a6e576040517f08c379a0000000000000000000000000000000000000000000000000000000008152600401610a6590611b9c565b60405180910390fd5b600a81908060018154018082558091505060019003906000526020600020016000909190919091509081610aa29190611d68565b5060006001600a80549050610ab79190611e69565b9050610ac33382610e1b565b6001600b83604051610ad59190611b39565b908152602001604051809103902060006101000a81548160ff0219169083151502179055505050565b6000610b0982610e3c565b610b48576040517f08c379a0000000000000000000000000000000000000000000000000000000008152600401610b3f90611ee9565b60405180910390fd5b6000610b53836107ee565b90508373ffffffffffffffffffffffffffffffffffffffff168173ffffffffffffffffffffffffffffffffffffffff161480610bc257508373ffffffffffffffffffffffffffffffffffffffff16610baa84610eae565b73ffffffffffffffffffffffffffffffffffffffff16145b610bcb57600080fd5b600191505092915050565b610bdf816107ee565b73ffffffffffffffffffffffffffffffffffffffff168373ffffffffffffffffffffffffffffffffffffffff1614610c4c576040517f08c379a0000000000000000000000000000000000000000000000000000000008152600401610c4390611f7b565b60405180910390fd5b600073ffffffffffffffffffffffffffffffffffffffff168273ffffffffffffffffffffffffffffffffffffffff1603610cbb576040517f08c379a0000000000000000000000000000000000000000000000000000000008152600401610cb290611944565b60405180910390fd5b6001600460008573ffffffffffffffffffffffffffffffffffffffff1673ffffffffffffffffffffffffffffffffffffffff1681526020019081526020016000206000828254610d0b9190611e69565b925050819055506001600460008473ffffffffffffffffffffffffffffffffffffffff1673ffffffffffffffffffffffffffffffffffffffff1681526020019081526020016000206000828254610d629190611f9b565b92505081905550816003600083815260200190815260200160002060006101000a81548173ffffffffffffffffffffffffffffffffffffffff021916908373ffffffffffffffffffffffffffffffffffffffff160217905550808273ffffffffffffffffffffffffffffffffffffffff168473ffffffffffffffffffffffffffffffffffffffff167fddf252ad1be2c89b69c2b068fc378daa952ba7f163c4a11628f55a4df523b3ef60405160405180910390a4505050565b610e258282610f33565b610e2e81611127565b610e388282611170565b5050565b6000806003600084815260200190815260200160002060009054906101000a900473ffffffffffffffffffffffffffffffffffffffff169050600073ffffffffffffffffffffffffffffffffffffffff168173ffffffffffffffffffffffffffffffffffffffff161415915050919050565b6000610eb982610e3c565b610ef8576040517f08c379a0000000000000000000000000000000000000000000000000000000008152600401610eef90611ee9565b60405180910390fd5b6005600083815260200190815260200160002060009054906101000a900473ffffffffffffffffffffffffffffffffffffffff169050919050565b610f3c81610e3c565b15610f7c576040517f08c379a0000000000000000000000000000000000000000000000000000000008152600401610f739061201b565b60405180910390fd5b600073ffffffffffffffffffffffffffffffffffffffff166003600083815260200190815260200160002060009054906101000a900473ffffffffffffffffffffffffffffffffffffffff1673ffffffffffffffffffffffffffffffffffffffff161461101e576040517f08c379a000000000000000000000000000000000000000000000000000000000815260040161101590612087565b60405180910390fd5b816003600083815260200190815260200160002060006101000a81548173ffffffffffffffffffffffffffffffffffffffff021916908373ffffffffffffffffffffffffffffffffffffffff1602179055506001600460008473ffffffffffffffffffffffffffffffffffffffff1673ffffffffffffffffffffffffffffffffffffffff16815260200190815260200160002060008282546110c09190611f9b565b92505081905550808273ffffffffffffffffffffffffffffffffffffffff16600073ffffffffffffffffffffffffffffffffffffffff167fddf252ad1be2c89b69c2b068fc378daa952ba7f163c4a11628f55a4df523b3ef60405160405180910390a45050565b6006805490506007600083815260200190815260200160002081905550600681908060018154018082558091505060019003906000526020600020016000909190919091505550565b600860008373ffffffffffffffffffffffffffffffffffffffff1673ffffffffffffffffffffffffffffffffffffffff168152602001908152602001600020805490506009600083815260200190815260200160002081905550600860008373ffffffffffffffffffffffffffffffffffffffff1673ffffffffffffffffffffffffffffffffffffffff1681526020019081526020016000208190806001815401808255809150506001900390600052602060002001600090919091909150555050565b6000604051905090565b600080fd5b600080fd5b60007fffffffff0000000000000000000000000000000000000000000000000000000082169050919050565b61127d81611248565b811461128857600080fd5b50565b60008135905061129a81611274565b92915050565b6000602082840312156112b6576112b561123e565b5b60006112c48482850161128b565b91505092915050565b60008115159050919050565b6112e2816112cd565b82525050565b60006020820190506112fd60008301846112d9565b92915050565b600073ffffffffffffffffffffffffffffffffffffffff82169050919050565b600061132e82611303565b9050919050565b61133e81611323565b811461134957600080fd5b50565b60008135905061135b81611335565b92915050565b6000819050919050565b61137481611361565b811461137f57600080fd5b50565b6000813590506113918161136b565b92915050565b600080604083850312156113ae576113ad61123e565b5b60006113bc8582860161134c565b92505060206113cd85828601611382565b9150509250929050565b600081519050919050565b600082825260208201905092915050565b60005b838110156114115780820151818401526020810190506113f6565b60008484015250505050565b6000601f19601f8301169050919050565b6000611439826113d7565b61144381856113e2565b93506114538185602086016113f3565b61145c8161141d565b840191505092915050565b60006020820190508181036000830152611481818461142e565b905092915050565b61149281611361565b82525050565b60006020820190506114ad6000830184611489565b92915050565b6000806000606084860312156114cc576114cb61123e565b5b60006114da8682870161134c565b93505060206114eb8682870161134c565b92505060406114fc86828701611382565b9150509250925092565b60006020828403121561151c5761151b61123e565b5b600061152a84828501611382565b91505092915050565b61153c81611323565b82525050565b60006020820190506115576000830184611533565b92915050565b6000602082840312156115735761157261123e565b5b60006115818482850161134c565b91505092915050565b600080fd5b600080fd5b7f4e487b7100000000000000000000000000000000000000000000000000000000600052604160045260246000fd5b6115cc8261141d565b810181811067ffffffffffffffff821117156115eb576115ea611594565b5b80604052505050565b60006115fe611234565b905061160a82826115c3565b919050565b600067ffffffffffffffff82111561162a57611629611594565b5b6116338261141d565b9050602081019050919050565b82818337600083830152505050565b600061166261165d8461160f565b6115f4565b90508281526020810184848401111561167e5761167d61158f565b5b611689848285611640565b509392505050565b600082601f8301126116a6576116a561158a565b5b81356116b684826020860161164f565b91505092915050565b6000602082840312156116d5576116d461123e565b5b600082013567ffffffffffffffff8111156116f3576116f2611243565b5b6116ff84828501611691565b91505092915050565b7f43616e6e6f7420617070726f7665206f776e6572206164647265737320666f7260008201527f2073616d6520746f6b656e000000000000000000000000000000000000000000602082015250565b6000611764602b836113e2565b915061176f82611708565b604082019050919050565b6000602082019050818103600083015261179381611757565b9050919050565b7f4f6e6c79206f776e6572732063616e20617070726f7665000000000000000000600082015250565b60006117d06017836113e2565b91506117db8261179a565b602082019050919050565b600060208201905081810360008301526117ff816117c3565b9050919050565b7f4e487b7100000000000000000000000000000000000000000000000000000000600052602260045260246000fd5b6000600282049050600182168061184d57607f821691505b6020821081036118605761185f611806565b5b50919050565b7f4f6e6c79206f776e6572206f7220617070726f7665642061646472657373657360008201527f2063616e207472616e7366657220746f6b656e73000000000000000000000000602082015250565b60006118c26034836113e2565b91506118cd82611866565b604082019050919050565b600060208201905081810360008301526118f1816118b5565b9050919050565b7f496e76616c696420616464726573732100000000000000000000000000000000600082015250565b600061192e6010836113e2565b9150611939826118f8565b602082019050919050565b6000602082019050818103600083015261195d81611921565b9050919050565b7f4e487b7100000000000000000000000000000000000000000000000000000000600052603260045260246000fd5b7f496e646578206f7574206f6620626f756e647321000000000000000000000000600082015250565b60006119c96014836113e2565b91506119d482611993565b602082019050919050565b600060208201905081810360008301526119f8816119bc565b9050919050565b7f4572726f72202d20496e76616c6964206f776e6572206164647265737320666f60008201527f756e642100000000000000000000000000000000000000000000000000000000602082015250565b6000611a5b6024836113e2565b9150611a66826119ff565b604082019050919050565b60006020820190508181036000830152611a8a81611a4e565b9050919050565b7f4572726f72202d20496e76616c6964206f776e65722061646472657373000000600082015250565b6000611ac7601d836113e2565b9150611ad282611a91565b602082019050919050565b60006020820190508181036000830152611af681611aba565b9050919050565b600081905092915050565b6000611b13826113d7565b611b1d8185611afd565b9350611b2d8185602086016113f3565b80840191505092915050565b6000611b458284611b08565b915081905092915050565b7f4b727970746f4269726420616c72656164792065786973747300000000000000600082015250565b6000611b866019836113e2565b9150611b9182611b50565b602082019050919050565b60006020820190508181036000830152611bb581611b79565b9050919050565b60008190508160005260206000209050919050565b60006020601f8301049050919050565b600082821b905092915050565b600060088302611c1e7fffffffffffffffffffffffffffffffffffffffffffffffffffffffffffffffff82611be1565b611c288683611be1565b95508019841693508086168417925050509392505050565b6000819050919050565b6000611c65611c60611c5b84611361565b611c40565b611361565b9050919050565b6000819050919050565b611c7f83611c4a565b611c93611c8b82611c6c565b848454611bee565b825550505050565b600090565b611ca8611c9b565b611cb3818484611c76565b505050565b5b81811015611cd757611ccc600082611ca0565b600181019050611cb9565b5050565b601f821115611d1c57611ced81611bbc565b611cf684611bd1565b81016020851015611d05578190505b611d19611d1185611bd1565b830182611cb8565b50505b505050565b600082821c905092915050565b6000611d3f60001984600802611d21565b1980831691505092915050565b6000611d588383611d2e565b9150826002028217905092915050565b611d71826113d7565b67ffffffffffffffff811115611d8a57611d89611594565b5b611d948254611835565b611d9f828285611cdb565b600060209050601f831160018114611dd25760008415611dc0578287015190505b611dca8582611d4c565b865550611e32565b601f198416611de086611bbc565b60005b82811015611e0857848901518255600182019150602085019450602081019050611de3565b86831015611e255784890151611e21601f891682611d2e565b8355505b6001600288020188555050505b505050505050565b7f4e487b7100000000000000000000000000000000000000000000000000000000600052601160045260246000fd5b6000611e7482611361565b9150611e7f83611361565b9250828203905081811115611e9757611e96611e3a565b5b92915050565b7f546f6b656e20646f6573206e6f74206578697374730000000000000000000000600082015250565b6000611ed36015836113e2565b9150611ede82611e9d565b602082019050919050565b60006020820190508181036000830152611f0281611ec6565b9050919050565b7f46726f6d206164647265737320646f6573206e6f74206d61746368207468652060008201527f546f6b656e206f776e6572000000000000000000000000000000000000000000602082015250565b6000611f65602b836113e2565b9150611f7082611f09565b604082019050919050565b60006020820190508181036000830152611f9481611f58565b9050919050565b6000611fa682611361565b9150611fb183611361565b9250828201905080821115611fc957611fc8611e3a565b5b92915050565b7f496e76616c6964206164647265737320666f756e642100000000000000000000600082015250565b60006120056016836113e2565b915061201082611fcf565b602082019050919050565b6000602082019050818103600083015261203481611ff8565b9050919050565b7f546f6b656e20616c7265616479206d696e746564210000000000000000000000600082015250565b60006120716015836113e2565b915061207c8261203b565b602082019050919050565b600060208201905081810360008301526120a081612064565b905091905056fea2646970667358221220170d121ee4efd1248375c33ec8557e47dd42c09127be14bc27dc07098224e7bd64736f6c63430008110033",
  "immutableReferences": {},
  "source": "// SPDX-License-Identifier:MIT\r\n\r\npragma solidity ^0.8.0;\r\n\r\nimport './ERC721Connector.sol';\r\n\r\ncontract KryptoBirdz is ERC721Connector{\r\n\r\n    // to keep track of the kryptobirdz that are minted\r\n    string[] public kryptoBirdz;\r\n\r\n    // to make sure the birdz are unique\r\n    mapping(string => bool) kryptoBirdExists;\r\n    constructor() ERC721Connector('Kryptobirdz','KBIRDZ') {\r\n    }\r\n\r\n    function mint(string memory _kryptoBird) public {\r\n        require(!(kryptoBirdExists[_kryptoBird]), \"KryptoBird already exists\");\r\n        kryptoBirdz.push(_kryptoBird);\r\n        uint id = kryptoBirdz.length - 1;\r\n        _mint(msg.sender, id);\r\n        kryptoBirdExists[_kryptoBird] = true;\r\n    }\r\n}",
  "sourcePath": "C:\\Gauri\\Blockchain Projects\\ERC721\\src\\contracts\\KryptoBirdz.sol",
  "compiler": {
    "name": "solc",
    "version": "0.8.17+commit.8df45f5f.Emscripten.clang"
  },
  "schemaVersion": "3.4.9",
  "updatedAt": "2022-12-10T16:23:30.604Z",
  "networkType": "ethereum",
  "devdoc": {
    "kind": "dev",
    "methods": {
      "supportsInterface(bytes4)": {
        "details": "Interface identification is specified in ERC-165. This function  uses less than 30,000 gas.",
        "params": {
          "interfaceID": "The interface identifier, as specified in ERC-165"
        },
        "returns": {
          "_0": "`true` if the contract implements `interfaceID` and  `interfaceID` is not 0xffffffff, `false` otherwise"
        }
      }
    },
    "version": 1
  },
  "userdoc": {
    "kind": "user",
    "methods": {
      "supportsInterface(bytes4)": {
        "notice": "Query if a contract implements an interface"
      }
    },
    "version": 1
  }
}