{
  "contractName": "KryptoBirdz",
  "abi": [
    {
      "inputs": [],
      "stateMutability": "nonpayable",
      "type": "constructor"
    },
    {
      "anonymous": false,
      "inputs": [
        {
          "indexed": true,
          "internalType": "address",
          "name": "_from",
          "type": "address"
        },
        {
          "indexed": true,
          "internalType": "address",
          "name": "_to",
          "type": "address"
        },
        {
          "indexed": true,
          "internalType": "uint256",
          "name": "_tokenId",
          "type": "uint256"
        }
      ],
      "name": "Transfer",
      "type": "event"
    },
    {
      "inputs": [
        {
          "internalType": "address",
          "name": "_owner",
          "type": "address"
        }
      ],
      "name": "balanceOf",
      "outputs": [
        {
          "internalType": "uint256",
          "name": "",
          "type": "uint256"
        }
      ],
      "stateMutability": "view",
      "type": "function",
      "constant": true
    },
    {
      "inputs": [],
      "name": "getName",
      "outputs": [
        {
          "internalType": "string",
          "name": "",
          "type": "string"
        }
      ],
      "stateMutability": "view",
      "type": "function",
      "constant": true
    },
    {
      "inputs": [],
      "name": "getSymbol",
      "outputs": [
        {
          "internalType": "string",
          "name": "",
          "type": "string"
        }
      ],
      "stateMutability": "view",
      "type": "function",
      "constant": true
    },
    {
      "inputs": [
        {
          "internalType": "uint256",
          "name": "",
          "type": "uint256"
        }
      ],
      "name": "kryptoBirdz",
      "outputs": [
        {
          "internalType": "string",
          "name": "",
          "type": "string"
        }
      ],
      "stateMutability": "view",
      "type": "function",
      "constant": true
    },
    {
      "inputs": [
        {
          "internalType": "uint256",
          "name": "_tokenId",
          "type": "uint256"
        }
      ],
      "name": "ownerOf",
      "outputs": [
        {
          "internalType": "address",
          "name": "",
          "type": "address"
        }
      ],
      "stateMutability": "view",
      "type": "function",
      "constant": true
    },
    {
      "inputs": [
        {
          "internalType": "uint256",
          "name": "_index",
          "type": "uint256"
        }
      ],
      "name": "tokenByIndex",
      "outputs": [
        {
          "internalType": "uint256",
          "name": "",
          "type": "uint256"
        }
      ],
      "stateMutability": "view",
      "type": "function",
      "constant": true
    },
    {
      "inputs": [
        {
          "internalType": "address",
          "name": "_owner",
          "type": "address"
        },
        {
          "internalType": "uint256",
          "name": "_index",
          "type": "uint256"
        }
      ],
      "name": "tokenOfOwnerByIndex",
      "outputs": [
        {
          "internalType": "uint256",
          "name": "",
          "type": "uint256"
        }
      ],
      "stateMutability": "view",
      "type": "function",
      "constant": true
    },
    {
      "inputs": [],
      "name": "totalSupply",
      "outputs": [
        {
          "internalType": "uint256",
          "name": "",
          "type": "uint256"
        }
      ],
      "stateMutability": "view",
      "type": "function",
      "constant": true
    },
    {
      "inputs": [
        {
          "internalType": "address",
          "name": "_from",
          "type": "address"
        },
        {
          "internalType": "address",
          "name": "_to",
          "type": "address"
        },
        {
          "internalType": "uint256",
          "name": "_tokenId",
          "type": "uint256"
        }
      ],
      "name": "transferFrom",
      "outputs": [],
      "stateMutability": "payable",
      "type": "function",
      "payable": true
    },
    {
      "inputs": [
        {
          "internalType": "string",
          "name": "_kryptoBird",
          "type": "string"
        }
      ],
      "name": "mint",
      "outputs": [],
      "stateMutability": "nonpayable",
      "type": "function"
    }
  ],
  "bytecode": "0x60806040523480156200001157600080fd5b506040518060400160405280600b81526020017f4b727970746f626972647a0000000000000000000000000000000000000000008152506040518060400160405280600681526020017f4b424952445a00000000000000000000000000000000000000000000000000008152508181816000908051906020019062000098929190620000bc565b508060019080519060200190620000b1929190620000bc565b5050505050620001d0565b828054620000ca906200019b565b90600052602060002090601f016020900481019282620000ee57600085556200013a565b82601f106200010957805160ff19168380011785556200013a565b828001600101855582156200013a579182015b82811115620001395782518255916020019190600101906200011c565b5b5090506200014991906200014d565b5090565b5b80821115620001685760008160009055506001016200014e565b5090565b7f4e487b7100000000000000000000000000000000000000000000000000000000600052602260045260246000fd5b60006002820490506001821680620001b457607f821691505b602082108103620001ca57620001c96200016c565b5b50919050565b61185980620001e06000396000f3fe6080604052600436106100915760003560e01c80634f6ccce7116100595780634f6ccce7146101705780636352211e146101ad57806370a08231146101ea57806393ab6e5614610227578063d85d3d271461026457610091565b8063150704011461009657806317d7de7c146100c157806318160ddd146100ec57806323b872dd146101175780632f745c5914610133575b600080fd5b3480156100a257600080fd5b506100ab61028d565b6040516100b89190610f53565b60405180910390f35b3480156100cd57600080fd5b506100d661031f565b6040516100e39190610f53565b60405180910390f35b3480156100f857600080fd5b506101016103b1565b60405161010e9190610f8e565b60405180910390f35b610131600480360381019061012c9190611047565b6103be565b005b34801561013f57600080fd5b5061015a6004803603810190610155919061109a565b6103ce565b6040516101679190610f8e565b60405180910390f35b34801561017c57600080fd5b50610197600480360381019061019291906110da565b6104b6565b6040516101a49190610f8e565b60405180910390f35b3480156101b957600080fd5b506101d460048036038101906101cf91906110da565b610527565b6040516101e19190611116565b60405180910390f35b3480156101f657600080fd5b50610211600480360381019061020c9190611131565b6105d8565b60405161021e9190610f8e565b60405180910390f35b34801561023357600080fd5b5061024e600480360381019061024991906110da565b61068f565b60405161025b9190610f53565b60405180910390f35b34801561027057600080fd5b5061028b60048036038101906102869190611293565b61073b565b005b60606001805461029c9061130b565b80601f01602080910402602001604051908101604052809291908181526020018280546102c89061130b565b80156103155780601f106102ea57610100808354040283529160200191610315565b820191906000526020600020905b8154815290600101906020018083116102f857829003601f168201915b5050505050905090565b60606000805461032e9061130b565b80601f016020809104026020016040519081016040528092919081815260200182805461035a9061130b565b80156103a75780601f1061037c576101008083540402835291602001916103a7565b820191906000526020600020905b81548152906001019060200180831161038a57829003601f168201915b5050505050905090565b6000600580549050905090565b6103c983838361083e565b505050565b60008073ffffffffffffffffffffffffffffffffffffffff168373ffffffffffffffffffffffffffffffffffffffff160361043e576040517f08c379a000000000000000000000000000000000000000000000000000000000815260040161043590611388565b60405180910390fd5b610447836105d8565b821061045257600080fd5b600760008473ffffffffffffffffffffffffffffffffffffffff1673ffffffffffffffffffffffffffffffffffffffff16815260200190815260200160002082815481106104a3576104a26113a8565b5b9060005260206000200154905092915050565b60006104c06103b1565b8210610501576040517f08c379a00000000000000000000000000000000000000000000000000000000081526004016104f890611423565b60405180910390fd5b60058281548110610515576105146113a8565b5b90600052602060002001549050919050565b6000806002600084815260200190815260200160002060009054906101000a900473ffffffffffffffffffffffffffffffffffffffff169050600073ffffffffffffffffffffffffffffffffffffffff168173ffffffffffffffffffffffffffffffffffffffff16036105cf576040517f08c379a00000000000000000000000000000000000000000000000000000000081526004016105c6906114b5565b60405180910390fd5b80915050919050565b60008073ffffffffffffffffffffffffffffffffffffffff168273ffffffffffffffffffffffffffffffffffffffff1603610648576040517f08c379a000000000000000000000000000000000000000000000000000000000815260040161063f90611521565b60405180910390fd5b600360008373ffffffffffffffffffffffffffffffffffffffff1673ffffffffffffffffffffffffffffffffffffffff168152602001908152602001600020549050919050565b6009818154811061069f57600080fd5b9060005260206000200160009150905080546106ba9061130b565b80601f01602080910402602001604051908101604052809291908181526020018280546106e69061130b565b80156107335780601f1061070857610100808354040283529160200191610733565b820191906000526020600020905b81548152906001019060200180831161071657829003601f168201915b505050505081565b600a8160405161074b919061157d565b908152602001604051809103902060009054906101000a900460ff16156107a7576040517f08c379a000000000000000000000000000000000000000000000000000000000815260040161079e906115e0565b60405180910390fd5b6009819080600181540180825580915050600190039060005260206000200160009091909190915090805190602001906107e2929190610e17565b50600060016009805490506107f7919061162f565b90506108033382610a83565b6001600a83604051610815919061157d565b908152602001604051809103902060006101000a81548160ff0219169083151502179055505050565b61084781610527565b73ffffffffffffffffffffffffffffffffffffffff168373ffffffffffffffffffffffffffffffffffffffff16146108b4576040517f08c379a00000000000000000000000000000000000000000000000000000000081526004016108ab906116d5565b60405180910390fd5b600073ffffffffffffffffffffffffffffffffffffffff168273ffffffffffffffffffffffffffffffffffffffff1603610923576040517f08c379a000000000000000000000000000000000000000000000000000000000815260040161091a90611388565b60405180910390fd5b6001600360008573ffffffffffffffffffffffffffffffffffffffff1673ffffffffffffffffffffffffffffffffffffffff1681526020019081526020016000206000828254610973919061162f565b925050819055506001600360008473ffffffffffffffffffffffffffffffffffffffff1673ffffffffffffffffffffffffffffffffffffffff16815260200190815260200160002060008282546109ca91906116f5565b92505081905550816002600083815260200190815260200160002060006101000a81548173ffffffffffffffffffffffffffffffffffffffff021916908373ffffffffffffffffffffffffffffffffffffffff160217905550808273ffffffffffffffffffffffffffffffffffffffff168473ffffffffffffffffffffffffffffffffffffffff167fddf252ad1be2c89b69c2b068fc378daa952ba7f163c4a11628f55a4df523b3ef60405160405180910390a4505050565b610a8d8282610aa4565b610a9681610c98565b610aa08282610ce1565b5050565b610aad81610da5565b15610aed576040517f08c379a0000000000000000000000000000000000000000000000000000000008152600401610ae490611797565b60405180910390fd5b600073ffffffffffffffffffffffffffffffffffffffff166002600083815260200190815260200160002060009054906101000a900473ffffffffffffffffffffffffffffffffffffffff1673ffffffffffffffffffffffffffffffffffffffff1614610b8f576040517f08c379a0000000000000000000000000000000000000000000000000000000008152600401610b8690611803565b60405180910390fd5b816002600083815260200190815260200160002060006101000a81548173ffffffffffffffffffffffffffffffffffffffff021916908373ffffffffffffffffffffffffffffffffffffffff1602179055506001600360008473ffffffffffffffffffffffffffffffffffffffff1673ffffffffffffffffffffffffffffffffffffffff1681526020019081526020016000206000828254610c3191906116f5565b92505081905550808273ffffffffffffffffffffffffffffffffffffffff16600073ffffffffffffffffffffffffffffffffffffffff167fddf252ad1be2c89b69c2b068fc378daa952ba7f163c4a11628f55a4df523b3ef60405160405180910390a45050565b6005805490506006600083815260200190815260200160002081905550600581908060018154018082558091505060019003906000526020600020016000909190919091505550565b600760008373ffffffffffffffffffffffffffffffffffffffff1673ffffffffffffffffffffffffffffffffffffffff168152602001908152602001600020805490506008600083815260200190815260200160002081905550600760008373ffffffffffffffffffffffffffffffffffffffff1673ffffffffffffffffffffffffffffffffffffffff1681526020019081526020016000208190806001815401808255809150506001900390600052602060002001600090919091909150555050565b6000806002600084815260200190815260200160002060009054906101000a900473ffffffffffffffffffffffffffffffffffffffff169050600073ffffffffffffffffffffffffffffffffffffffff168173ffffffffffffffffffffffffffffffffffffffff161415915050919050565b828054610e239061130b565b90600052602060002090601f016020900481019282610e455760008555610e8c565b82601f10610e5e57805160ff1916838001178555610e8c565b82800160010185558215610e8c579182015b82811115610e8b578251825591602001919060010190610e70565b5b509050610e999190610e9d565b5090565b5b80821115610eb6576000816000905550600101610e9e565b5090565b600081519050919050565b600082825260208201905092915050565b60005b83811015610ef4578082015181840152602081019050610ed9565b83811115610f03576000848401525b50505050565b6000601f19601f8301169050919050565b6000610f2582610eba565b610f2f8185610ec5565b9350610f3f818560208601610ed6565b610f4881610f09565b840191505092915050565b60006020820190508181036000830152610f6d8184610f1a565b905092915050565b6000819050919050565b610f8881610f75565b82525050565b6000602082019050610fa36000830184610f7f565b92915050565b6000604051905090565b600080fd5b600080fd5b600073ffffffffffffffffffffffffffffffffffffffff82169050919050565b6000610fe882610fbd565b9050919050565b610ff881610fdd565b811461100357600080fd5b50565b60008135905061101581610fef565b92915050565b61102481610f75565b811461102f57600080fd5b50565b6000813590506110418161101b565b92915050565b6000806000606084860312156110605761105f610fb3565b5b600061106e86828701611006565b935050602061107f86828701611006565b925050604061109086828701611032565b9150509250925092565b600080604083850312156110b1576110b0610fb3565b5b60006110bf85828601611006565b92505060206110d085828601611032565b9150509250929050565b6000602082840312156110f0576110ef610fb3565b5b60006110fe84828501611032565b91505092915050565b61111081610fdd565b82525050565b600060208201905061112b6000830184611107565b92915050565b60006020828403121561114757611146610fb3565b5b600061115584828501611006565b91505092915050565b600080fd5b600080fd5b7f4e487b7100000000000000000000000000000000000000000000000000000000600052604160045260246000fd5b6111a082610f09565b810181811067ffffffffffffffff821117156111bf576111be611168565b5b80604052505050565b60006111d2610fa9565b90506111de8282611197565b919050565b600067ffffffffffffffff8211156111fe576111fd611168565b5b61120782610f09565b9050602081019050919050565b82818337600083830152505050565b6000611236611231846111e3565b6111c8565b90508281526020810184848401111561125257611251611163565b5b61125d848285611214565b509392505050565b600082601f83011261127a5761127961115e565b5b813561128a848260208601611223565b91505092915050565b6000602082840312156112a9576112a8610fb3565b5b600082013567ffffffffffffffff8111156112c7576112c6610fb8565b5b6112d384828501611265565b91505092915050565b7f4e487b7100000000000000000000000000000000000000000000000000000000600052602260045260246000fd5b6000600282049050600182168061132357607f821691505b602082108103611336576113356112dc565b5b50919050565b7f496e76616c696420616464726573732100000000000000000000000000000000600082015250565b6000611372601083610ec5565b915061137d8261133c565b602082019050919050565b600060208201905081810360008301526113a181611365565b9050919050565b7f4e487b7100000000000000000000000000000000000000000000000000000000600052603260045260246000fd5b7f496e646578206f7574206f6620626f756e647321000000000000000000000000600082015250565b600061140d601483610ec5565b9150611418826113d7565b602082019050919050565b6000602082019050818103600083015261143c81611400565b9050919050565b7f4572726f72202d20496e76616c6964206f776e6572206164647265737320666f60008201527f756e642100000000000000000000000000000000000000000000000000000000602082015250565b600061149f602483610ec5565b91506114aa82611443565b604082019050919050565b600060208201905081810360008301526114ce81611492565b9050919050565b7f4572726f72202d20496e76616c6964206f776e65722061646472657373000000600082015250565b600061150b601d83610ec5565b9150611516826114d5565b602082019050919050565b6000602082019050818103600083015261153a816114fe565b9050919050565b600081905092915050565b600061155782610eba565b6115618185611541565b9350611571818560208601610ed6565b80840191505092915050565b6000611589828461154c565b915081905092915050565b7f4b727970746f4269726420616c72656164792065786973747300000000000000600082015250565b60006115ca601983610ec5565b91506115d582611594565b602082019050919050565b600060208201905081810360008301526115f9816115bd565b9050919050565b7f4e487b7100000000000000000000000000000000000000000000000000000000600052601160045260246000fd5b600061163a82610f75565b915061164583610f75565b92508282101561165857611657611600565b5b828203905092915050565b7f46726f6d206164647265737320646f6573206e6f74206d61746368207468652060008201527f546f6b656e206f776e6572000000000000000000000000000000000000000000602082015250565b60006116bf602b83610ec5565b91506116ca82611663565b604082019050919050565b600060208201905081810360008301526116ee816116b2565b9050919050565b600061170082610f75565b915061170b83610f75565b9250827fffffffffffffffffffffffffffffffffffffffffffffffffffffffffffffffff038211156117405761173f611600565b5b828201905092915050565b7f496e76616c6964206164647265737320666f756e642100000000000000000000600082015250565b6000611781601683610ec5565b915061178c8261174b565b602082019050919050565b600060208201905081810360008301526117b081611774565b9050919050565b7f546f6b656e20616c7265616479206d696e746564210000000000000000000000600082015250565b60006117ed601583610ec5565b91506117f8826117b7565b602082019050919050565b6000602082019050818103600083015261181c816117e0565b905091905056fea2646970667358221220a3a0d40ec5705d77bb252a2efa0d3145218b1e53f0583649264122078ad4c9d864736f6c634300080d0033",
  "immutableReferences": {},
  "source": "// SPDX-License-Identifier:MIT\r\n\r\npragma solidity ^0.8.0;\r\n\r\nimport './ERC721Connector.sol';\r\n\r\ncontract KryptoBirdz is ERC721Connector{\r\n\r\n    // to keep track of the kryptobirdz that are minted\r\n    string[] public kryptoBirdz;\r\n\r\n    // to make sure the birdz are unique\r\n    mapping(string => bool) kryptoBirdExists;\r\n    constructor() ERC721Connector('Kryptobirdz','KBIRDZ') {\r\n    }\r\n\r\n    function mint(string memory _kryptoBird) public {\r\n        require(!(kryptoBirdExists[_kryptoBird]), \"KryptoBird already exists\");\r\n        kryptoBirdz.push(_kryptoBird);\r\n        uint id = kryptoBirdz.length - 1;\r\n        _mint(msg.sender, id);\r\n        kryptoBirdExists[_kryptoBird] = true;\r\n    }\r\n}",
  "sourcePath": "C:\\Users\\Gauri\\Blockchain\\Udemy Course 3\\ERC_721_Project\\src\\contracts\\KryptoBirdz.sol",
  "compiler": {
    "name": "solc",
    "version": "0.8.13+commit.abaa5c0e.Emscripten.clang"
  },
  "schemaVersion": "3.4.5",
  "updatedAt": "2022-03-24T04:56:03.738Z",
  "networkType": "ethereum",
  "devdoc": {
    "kind": "dev",
    "methods": {
      "ownerOf(uint256)": {
        "details": "NFTs assigned to zero address are considered invalid, and queries  about them do throw.",
        "params": {
          "_tokenId": "The identifier for an NFT"
        },
        "returns": {
          "_0": "The address of the owner of the NFT"
        }
      },
      "totalSupply()": {
        "returns": {
          "_0": "A count of valid NFTs tracked by this contract, where each one of  them has an assigned and queryable owner not equal to the zero address"
        }
      }
    },
    "version": 1
  },
  "userdoc": {
    "kind": "user",
    "methods": {
      "ownerOf(uint256)": {
        "notice": "Find the owner of an NFT"
      },
      "totalSupply()": {
        "notice": "Count NFTs tracked by this contract"
      }
    },
    "version": 1
  }
}